:020000040800F2
:100000009004002069010008BF010008B701000842
:10001000BB010008B1010008D50200080000000083
:10002000000000000000000000000000EB010008DC
:10003000B501000800000000E9010008ED0100081A
:100040008301000883010008830100088301000880
:100050008301000883010008830100088301000870
:100060008301000883010008830100088301000860
:100070008301000883010008830100088301000850
:100080008301000883010008830100088301000840
:100090008301000883010008830100088301000830
:1000A0008301000883010008830100088301000820
:1000B0008301000883010008830100088301000810
:1000C0008301000883010008830100088301000800
:1000D00083010008830100088301000883010008F0
:1000E00083010008830100088301000883010008E0
:1000F000830100088301000883010008000000005C
:10010000830100080000000083010008830100084B
:1001100083010008830100088301000883010008AF
:10012000830100088301000883010008830100089F
:10013000830100088301000883010008830100088F
:10014000830100088301000883010008830100087F
:10015000DFF810D000F01AF8004800474504000806
:10016000AFF300809004002006488047064800470F
:10017000FEE7FEE7FEE7FEE7FEE7FEE7FEE7FEE757
:10018000FEE7FEE7F901000851010008064C074DA3
:1001900006E0E06840F0010394E807009847103457
:1001A000AC42F6D3FFF7D8FF040600082406000887
:1001B00000BFFEE7704700BFFEE700BFFEE77047E5
:1001C00010B5002807DA0A07140E054A00F00F03DD
:1001D0001B1FD45403E00A07130E024A135410BD28
:1001E00018ED00E000E400E07047704710B500F043
:1001F0000BF900F08BF810BD08B53148006840F0ED
:1002000001002F49086000BF2D48006800F002007F
:100210000028F9D000BF2A48406840F080002849F3
:1002200048600020009002E00098401C0090009878
:100230005028F9D32248406840F090002049486097
:100240000020009002E00098401C00900098502888
:10025000F9D300BF1A48406820F0030018494860ED
:100260000846006817490840154908600846406874
:10027000154908401249486008460068114908407D
:100280000F4908600846006820F48020086008468E
:1002900040680E4908400A4948600020C862084684
:1002A00000680B490840064908604FF47F008860E9
:1002B00000F07CF900214FF0006000F0E7F808BD85
:1002C00000100240FFFFF6FE0C00FFE0FFFF00DF22
:1002D000FFFFF6EA00BFFEE702E008C8121F08C1F0
:1002E000002AFAD170477047002001E001C1121FB7
:1002F000002AFBD1704700000349086000BF024993
:1003000009680029FBD170470400002004480068F8
:1003100020B103480068401E014908607047000092
:1003200004000020034951F82010034A52F820200D
:10033000516170471C0000200C000020034951F857
:100340002010034A52F82020116170471C00002041
:100350000C0000204161704701617047F0B5044610
:1003600016460025002201F00F0501F0100707B125
:10037000354300201EE0012787401F40C7B1226897
:100380004FEA800C0F2707FA0CF7BA43870005FAEB
:1003900007F73A43282904D1012787401F406761A6
:1003A00005E0482903D1012787401F4027612260CB
:1003B000471CB8B20828DED3082022E00127874076
:1003C0001F40E7B16268A0F108074FEA870C0F27CA
:1003D00007FA0CF7BA43A0F10807BF0005FA07F7C0
:1003E0003A43282904D1012787401F40676105E06F
:1003F000482903D1012787401F4027616260471CBD
:10040000B8B21028DAD3F0BD10B50D48006888B135
:100410000B480068B0F5FA7F03D20020FFF78EFF8B
:1004200002E00020FFF77EFF05480068401E0449F7
:10043000086003E04FF47A700149086010BD0000C5
:100440000000002000F0B6F840F2046000F02AF846
:100450004FF40053032210210B48FFF77FFF11E0F8
:100460004FF400510848FFF775FF4FF47A70FFF71B
:1004700043FF4FF400510448FFF76EFF4FF47A70CA
:10048000FFF73AFFECE7000000100140034A0A4082
:100490000243034B1A60BFF34F8F704780FFFF1F6B
:1004A00008ED00E0064A02EB9011096800F01F0316
:1004B00001229A401143024B03EB901211607047E6
:1004C0000010024000200021334A126842F48032BA
:1004D000314B1A6000BF401C2F4A126802F40031F1
:1004E00019B94FF6FF729042F5D12B4A126802F407
:1004F00000320AB900BFFEE7274A5268264B5A600D
:100500001A4652685A601A46526842F480625A602B
:100510001A465268214B1A401F4B5A601A465268BD
:100520001F4B1A431C4B5A601A46D26A1D4B1A4085
:10053000194BDA621A46D26A1B4B1A43164BDA621F
:100540001A46126842F080621A6000BF124A1268AE
:1005500002F00062002AF9D00F4A126842F080725D
:100560000D4B1A6000BF0C4A126802F00072002A9C
:10057000F9D0094A526822F00302074B5A601A4622
:10058000526842F002025A6000BF034A526802F009
:100590000C02082AF9D1704700100240FFFFC3DFA8
:1005A0000000292000F0FEFF4906010010B5FFF70A
:1005B00089FF10BD10B5124800684FF47A71B0FB86
:1005C000F1F4601EB0F1807F01D301200FE0601EC6
:1005D0004FF0E02148610F214FF0FF30FFF7F0FDB1
:1005E00000204FF0E021886107200861002008B159
:1005F00000BFFEE70021481EFFF7E2FD10BD00002E
:100600000800002024060008000000208C000000E4
:10061000D8020008B00600088C0000200404000086
:10062000E8020008000000000000000000F36F0670
:100630000010014000100140001801400018014066
:1006400001000000040000000100000002000000A2
:100650000E06110700020000040000000004000064
:1006600008000000000801400008014002060206E0
:1006700004060406060606060008014000100140B4
:10068000000C0140010000000020000000400000BC
:10069000020604060306000001000000002000001E
:1006A00000400000000201000D0E06282800000096
:04000005080001519D
:00000001FF
