:020000040800F2
:10000000E804002045010008A9040008F5030008E1
:10001000A50400087103000835070008000000006F
:10002000000000000000000000000000F9040008CB
:10003000C903000800000000BD04000829050008ED
:10004000390700085F0100085F010008C1040008CB
:100050005F0100085F0100085F0100085F01000800
:100060005F0100085F0100085F01000875030008D8
:100070005F0100085F0100085F010008A503000898
:100080005F0100085F0100085F0100085F010008D0
:100090005F0100085F0100085F0100085F010008C0
:1000A0005F0100085F0100085F0100085F010008B0
:1000B0005F010008E10500085F0100085F0100081A
:1000C0005F0100085F0100085F0100085F01000890
:1000D0005F010008DD0600085F0100085F010008FD
:1000E000CD0300085F0100085F0100085F01000800
:1000F0005F0100085F0100085F0100085F01000860
:100100005F0100085F0100085F0100085F0100084F
:100110005F0100085F0100084D0600085F0100084C
:100120005F0100085F0100085F0100085F0100082F
:10013000DFF80CD000F0EAF8004800473911000859
:10014000E80400200648804706480047FEE7FEE72F
:10015000FEE7FEE7FEE7FEE7FEE7FEE7FEE7FEE777
:100160003105000831010008D2B201E000F8012B8E
:10017000491EFBD270470022F6E710B513460A4627
:1001800004461946FFF7F0FF204610BD30B480EA60
:10019000010202F0004530F0004221F0004013D08F
:1001A00090B1C30DD40DC2F31601C0F31600E41ACA
:1001B00041F4000140F400027D34914201D3641CFB
:1001C00000E04900002C02DA30BC002070474FF4F8
:1001D00000000023914201D3891A034340084FEAEB
:1001E0004101F7D151B1914202D14FF0004105E0F8
:1001F00002D24FF0010101E06FF0010103EBC450A6
:10020000284430BC00F04AB896230022114600F082
:100210004EB820F00040C10DC0F3160040F40000BD
:100220007F2901DA00207047962903DCC1F196018D
:10023000C84070479639884070472DE9F05F054601
:10024000002092469B4688460646814640241BE095
:10025000284641464746224600F079F853465A461A
:10026000C01A914110D311461846224600F060F89A
:100270002D1A67EB01084F4622460120002100F0AD
:1002800057F817EB00094E41201EA4F10104DFDCF2
:10029000484631462A464346BDE8F09F0029A8BF9C
:1002A0007047401C490008BF20F00100704710B49F
:1002B000B0FA80FC00FA0CF050EA010404BF10BC54
:1002C000704749B1CCF1200421FA04F411FA0CF181
:1002D00018BF012121430843A3EB0C01CB1D4FEABA
:1002E00000614FEA102042BF002010BC704700EBB5
:1002F000C35010440029A4BF10BC7047401C4900E3
:1003000008BF20F0010010BC70470000064C074DEC
:1003100006E0E06840F0010394E8070098471034D5
:10032000AC42F6D3FFF708FF283200084832000835
:10033000202A04DB203A00FA02F1002070479140A5
:10034000C2F1200320FA03F3194390407047202A9A
:1003500004DB203A21FA02F00021704721FA02F36F
:10036000D040C2F120029140084319467047000076
:10037000FEE7000010B50024C4F20204204600216C
:10038000022200F0F3FB012818BF10BD2046002117
:10039000022200F0E3FB40F20400C2F2000001215F
:1003A000017010BD10B50024C4F2020420460421DF
:1003B000022200F0DBFB002808BF10BD204604210C
:1003C000012200F0CBFB10BD7047000080B54FF458
:1003D000004000F075FC012818BF80BD40F22C00E1
:1003E000C2F20000012101704FF4004000F062FCF5
:1003F00080BD0000FEE70000F0B583B001F0C8FA50
:1004000040F24400C2F200004068804740F22C07EE
:10041000C2F20007B868804740F28400C2F20000D0
:10042000406B804740F26C05C2F20005AA686B2061
:1004300040F2E7319047EC684FF4AF704FF4E1764B
:1004400000906B2040F2F3116422E1230196A04753
:10045000286980477869804740F20400C2F20000B2
:100460008069804740F25004C2F20004206980474E
:10047000A069804740F22404C2F20004206880474B
:100480006068804701F07EF901F0A8F802A002F050
:1004900089FE03B0F0BD00BFB3F5CABCBBAFCDEA67
:1004A000B3C90D00FEE70000704700004EF623516F
:1004B0000001CEF200010870704700007047000094
:1004C000B0B50120012501F04DF840F2500401289B
:1004D000C2F2000403D1012001F03AF86570022055
:1004E00001F040F8012818BFB0BD022001F030F83B
:1004F00001202070B0BD000070470000B0B5013889
:100500000024B4EB106F1CBF0120B0BD4EF21005EB
:10051000CEF2000568600F20FFF7C8FF0720AC602F
:1005200028602046B0BD000080B500F05DFA80BDB7
:1005300080B582B041F20000C4F20200016841F0CF
:100540000101016001688907FCD5416841F0800123
:10055000416000210191019A4F2A05D8019A013288
:100560000192019A502AF9D3426842F09002426007
:10057000019101994F2905D8019901310191019902
:100580005029F9D341684FF6FF7221F00301416011
:100590000168CFF6F6621140016041680C23CEF687
:1005A000FF031940416001684FF6FF73114001607D
:1005B0000168CFF2007321F4802101604168194085
:1005C00041600168114001604FF41F01816001F03A
:1005D000DBF94FF00060002100F0F6FD02B080BDB5
:1005E000B0B540F20045C4F200052846022101F0F2
:1005F0000FFD012818BFB0BD2846022101F004FDFF
:10060000686B441C07D340F26C00C2F2000000216A
:1006100041604170B0BDAD6B2046FFF7F5FD01466E
:1006200042F20040C4F67410FFF7B0FDFFF7F1FD91
:100630006421694340F26C026431C2F20002B1FBF2
:10064000F4F15060012051701070B0BDB0B541F2AE
:100650000004C4F200042046012101F0D9FC012865
:100660003BD12046012101F0CFFC40F2D80540F2F9
:10067000DC00C2F20005C2F200002A88018840F2C4
:10068000DA040132C2F2000401312A80228801809A
:1006900089B20132642922800BD140F24402C2F2B5
:1006A0000002002113780180916883F0010010702E
:1006B00088472888C82807D10020288040F20400F5
:1006C000C2F20000012101752088B0F5487F18BFF3
:1006D000B0BD0020208000F06FFCB0BD10B543F627
:1006E0000004C4F2010440F20431C0F204012046C7
:1006F00001F094FD012818BF10BD204601F012FD45
:1007000004F548442046042100F07AF920460421EB
:1007100000F074FAC0F1320240F28401C0F13100FD
:10072000C2F20001C0B230284A709CBF012008709C
:1007300010BD0000FEE7000080B57F2002F0BCFA8B
:1007400002F0CCFA80BD0000816841F008018160B0
:1007500081680907FCD4816841F00401816000BF11
:1007600081684907FCD4704780B5012908D0022967
:1007700018BF80BD4FF4401E6FF4401C382304E0C6
:100780004FF4700E6FF4700C2C23195801EA0C0111
:1007900019500EEB02511A5801EA0E01114319507B
:1007A00080BD00008268002922F4006218BF02F5B3
:1007B0000062826070470000816841F4807181604E
:1007C000704700008168C90718BF7047816841F011
:1007D0000101816070470000002A01F0010203D08E
:1007E0007AB9890713D470471AB1826822F480124B
:1007F0008260890758BF7047816821F40041816099
:100800007047826842F4801282608907EBD5816864
:1008100041F4004181607047012905D0022918BFC9
:1008200070476FF4E04101E06FF460218368194084
:10083000816081681143816070470000026822EA8C
:1008400001010160704700000068084018BF0120E6
:100850007047000042F20441C4F201010A6822F428
:1008600070220A600A6810430860704710B50529B5
:1008700004D800F1340C01EB810E10E00B2906D8EE
:1008800001EB810100F1300CA1F11E0E07E00F29F0
:1008900010D801EB810100F12C0CA1F13C0EDCF829
:1008A00000101F2404FA0EF4A14302FA0EF42143AF
:1008B000CCF80010092A03D8103002EB420106E000
:1008C000112A88BF10BD02EB42010C301E390268AC
:1008D00007248C40A24303FA01F11143016010BDCB
:1008E000C06C80B270470000CA0703D0826842F42F
:1008F00080028260890758BF7047816841F4001107
:1009000081607047002A01F4807205D0BAB94A05A7
:100910001BD489071FD470471AB1426822F4807231
:1009200042604A0503D5426822F48062426089072A
:1009300058BF7047816821F00201816070474268AA
:1009400042F4807242604A05E3D5426842F4806214
:1009500042608907DFD5816841F0020181607047FC
:10096000A0F10B011F2908D846F60041C4F200018E
:1009700041EA8000143000887047411E092984BF75
:100980000020704746F60041C4F2000141EA8000B1
:1009900000887047A0F10B021F2A08D846F60042D3
:1009A000C4F2000242EA8000143001807047421E07
:1009B000092A88BF704746F60042C4F2000242EAA4
:1009C000800001807047000080B500F053FC00F00B
:1009D00047FC80BD40F2E001C2F20001086000BFA8
:1009E00008680028FCD1704740F2E000C2F2000025
:1009F0000168002908BF704701680139016070472C
:100A0000B0B50D46044600F0E1F848B105EB8500AD
:100A100004EB8000816821F001018160B0BD00BF5E
:100A2000FEE70000B0B50D46044600F0CFF848B12F
:100A300005EB850004EB8000816841F001018160D5
:100A4000B0BD00BFFEE70000B0B50D46044600F0A3
:100A5000BDF848B105EB850004EB8000816821F00A
:100A600020018160B0BD00BFFEE70000B0B50D46BB
:100A7000044600F0ABF848B105EB850004EB8000BC
:100A8000816841F020018160B0BD00BFFEE7000039
:100A9000B0B50D46044600F099F8A8B105EB850005
:100AA00004EB8000816821F00101816000218160F8
:100AB000C16001614161A8000F21626801FA00F084
:100AC00010436060B0BD00BFFEE7000070B5144683
:100AD0000E46054600F07AF860B3216806EB860002
:100AE00005EB80000161A1684161218AC1608168D4
:100AF000626821F47C51E36866691143194331430C
:100B00008160217E8268012922F0400208BF4032C4
:100B10008260617E8268012922F0800208BF8032F3
:100B20008260A17E8268002922F0100218BF103274
:100B3000826070BDFEE7000070B514460E460546A3
:100B400000F044F840B106EB860005EB80008168B8
:100B50002143816070BD00BFFEE70000890043684B
:100B600002FA01F11943416070470000082A19D8C0
:100B70000123934013F48A7F14D08B0001EB810191
:100B8000D0F800C000EB8100806802FA03F31CEA91
:100B9000030100EA020018BF0121002818BF01204C
:100BA00008407047FEE70000B0B50D46044600F06F
:100BB0000DF848B105EB850004EB8000816821F455
:100BC00080418160B0BD00BFFEE7000040F20042FE
:100BD000C4F20202801A18BF01200022052938BF82
:100BE00001221043704700000021C0F81710C0E92F
:100BF0000011C0E90211C0E904117047B0B50D46FB
:100C00000446FFF7E3FF28B105EB850004EB800005
:100C1000C068B0BDFEE7000040F2084CC4F2010C11
:100C20005CF8083C012923EA00034CF8083C5CF816
:100C3000043C23EA00034CF8043CDCF8003023EACF
:100C40000003CCF80030DCF8043023EA0003CCF8D1
:100C5000043019D021B95CF8081C01434CF8081C79
:100C6000022A18D0012A6FEA000118D0002A18BF02
:100C70007047DCF800201043CCF80000DCF80400DA
:100C80000840CCF8040070475CF8041C01434CF8A1
:100C9000041C022AE6D1DCF80010014302E0DCF873
:100CA00000201140CCF80010DCF804100843CCF808
:100CB0000400704740F21441C4F20101086070471B
:100CC00040F21441C4F201010968084018BF012034
:100CD0007047000010B5444200F008F8012801D127
:100CE0000134F9D1012808BF042010BD42F20C00E4
:100CF000C4F202000168C9071CBF012070470168E7
:100D0000C9064FBF03200068022101EA5000704766
:100D100010B5444200F008F8012801D10134F9D19E
:100D2000012808BF042010BD42F24C00C4F20200AA
:100D30000168C9071CBF012070470168C9064FBF81
:100D400003200068022101EA5000704742F20003CC
:100D500000F01F018009C4F202034FF0010CC258D9
:100D60000CFA01F11143C1507047000042F210002B
:100D7000C4F20200016841F0800101604FF2E071AD
:100D8000C1F6FF710988B1F5007F98BF7047016C0B
:100D900041F0800101647047B0B54FF2E071C1F6D7
:100DA000FF7109880446B1F5007F0BD94FF6FE703C
:100DB000C0F60700844222D84FF47020FFF78AFF64
:100DC00010BB06E04FF47020FFF784FF002818BF27
:100DD000B0BD42F21005C4F20205286840F00200DE
:100DE00028606C60286840F0400028604FF4702054
:100DF000FFF770FF296821F002012960B0BD4FF4B0
:100E00007020FFF785FF00B1B0BD42F21005C4F2BB
:100E10000205286C40F0020028646C64E8688007D2
:100E200048BF6C60286C40F0400028644FF470208C
:100E3000FFF76EFF296C21F002012964B0BD0000AC
:100E400042F20400C4F20200C168090609D540F26A
:100E50002311C4F26751016048F6AB11CCF6EF5193
:100E600001604FF2E071C1F6FF710988B1F5007FB2
:100E70000DD9C16C090658BF704740F22311C4F266
:100E80006751016448F6AB11CCF6EF51016470472D
:100E900070B54FF2E072C1F6FF7212880C46B2F5DF
:100EA000007F05460BD94FF6FE70C0F6070085425D
:100EB0001ED84FF47020FFF70DFFF0B906E04FF495
:100EC0007020FFF707FF002818BF70BD42F2100620
:100ED000C4F20206306840F0010030604FF4702028
:100EE0002C60FFF7F7FE316821F00101316070BD21
:100EF0004FF47020FFF70CFF00B170BD42F21006F6
:100F0000C4F20206306C40F0010030644FF47020EF
:100F10002C60FFF7FDFE316C21F00101316470BDE2
:100F200070B543F60005C4F201050446C1B2284677
:100F300001F0FCF84FF61846CFF6FF762846072159
:100F400001F044F91EB1002806F10106F6D0204652
:100F500070BD000080B540F2020ECFF6F07E43F285
:100F6000000CC4F2000C45F255527346CCF8002038
:100F7000DCF80C2002F001021BB1002A03F101038E
:100F8000F6D16AB9CCF80410DCF80C10BEF1000FF1
:100F900001F0020103D000290EF1010EF4D109B1D4
:100FA000002080BD6FF31F30CCF808004AF6AA205D
:100FB000CCF80000012080BD43F20000C4F2000024
:100FC0004AF6AA210160704743F20000C4F2000013
:100FD0004CF6CC410160704743F20000C4F20000BF
:100FE00045F255510160704741617047016170479A
:100FF0001023002A08BF1423195070470C2240F216
:10100000080C02EA81030F22C4F2010C032902FA40
:1010100003F20BD8DCF8001098409143CCF8001094
:10102000DCF800100843CCF80000704707290BD803
:10103000DCF8041098409143CCF80410DCF804105C
:101040000843CCF8040070470B296FEA02010BD863
:10105000DCF8082098401140CCF80810DCF80810A3
:101060000843CCF808007047DCF80C209840114089
:10107000CCF80C10DCF80C100843CCF80C007047CE
:101080002DE9F047CF0601F00F0C00F1100E00F132
:10109000140A4FF000044FF001094FF00F084FF011
:1010A000000748BF4CEA020C0EE000BF166008FAC9
:1010B00004F225EA02020CFA04F52A430260013721
:1010C000082F04F104040CD009FA07F212EA03060F
:1010D000F5D0056828295246E8D04829E7D172465C
:1010E000E4E7082400254FF001094FF00F080FE056
:1010F000176008FA05F226EA02020CFA05F63243F6
:1011000042600134102C05F1040508BFBDE8F087EA
:1011100009FA04F212EA0307F3D046682829524676
:10112000E6D04829E5D17246E2E700008068084031
:1011300018BF012070470000FFF75EF940F22C0451
:10114000C2F2000420698047FCE7000070B5154634
:101150004EF60C52CEF2000212680E4602F4E06126
:10116000A1F54071B1F5A06F044601D2080A04E070
:101170004FF4A06000F01EF8022006FA00F1C0F162
:1011800004000F2222FA00F0284008434EF200111A
:10119000CEF20001000144EA010282F8000304F0EB
:1011A0001F00012202FA00F01C2202EAD402505071
:1011B00070BD000040F080604EF60C5140F0FD70B4
:1011C000CEF20001086070474FF68072C1F6FF72E0
:1011D000114008434EF60851CEF200010860BFF3FB
:1011E0004F8F704747F20000C4F20000016821F4FD
:1011F000807101607047000047F20000C4F20000F7
:10120000016841F4807101607047000041F20401FF
:10121000C4F202010A6843F6FF73CEF6FF73042896
:1012200002EA03023EBF42EA80320A6070470528A4
:1012300001D0072808D14CF20003CEF6FE7303EA72
:101240008030104340F080520A60704741F2240021
:10125000C4F20200016841F0807101607047000033
:1012600041F22000C4F20200016821F480310160E3
:101270007047000041F22000C4F20200016841F40E
:10128000803101607047000010B541F20402C4F2E1
:1012900002021368014603F00C00082841F2002006
:1012A000C0F27A0019D1136840F6001CDB03C0F2CB
:1012B0003D0C03D513689B0358BF84461068136820
:1012C000C0F3834E102000EAD350704401230F284E
:1012D00038BF0223184400FB0CF01368D2F800C09A
:1012E000146803290DD8C3F303130EA2D25C0FF2C6
:1012F000440E20FA02F3DFE801F01302060D18464F
:1013000010BD002010BDCCF302201EF8000023FA0F
:1013100000F010BDC4F3C2201EF8000023FA00F054
:1013200010BD00BF00000000000000000102030427
:1013300006070809000000000102030441F2000250
:101340008109C4F20202895800F01F0021FA00F05E
:1013500000F001007047000041F2000300F01F019F
:101360008009C4F202034FF0010CC2580CFA01F1DB
:101370001143C15070470000B0B5014617284FF027
:10138000000017DDB1F5106F2AD0B1F5006F38D02D
:10139000182918BFB0BD4FF6FE75C0F20F0519240D
:1013A0001920FFF7CBFF691EA9424AD200280D463B
:1013B000F6D046E0C9B3102949D14FF6FE7400BFFC
:1013C0001120FFF7BBFF611EA14202D200280C468C
:1013D000F6D01120FFF7B2FF002818BF0120B0BDE2
:1013E0004FF6FE75C0F20F0540F6011440F60110ED
:1013F000FFF7A4FF691EA94223D200280D46F5D0AD
:101400001FE04FF6FE70C0F20F0000F17C7540F651
:10141000010400BF40F60100FFF790FF691EA942DA
:101420000FD200280D46F5D00BE040F2FF45012415
:101430000120FFF783FF691EA94202D200280D4652
:10144000F6D02046FFF77AFF002818BF0120B0BD74
:1014500041F2000300F01F018009C4F202034FF0C3
:10146000010CC2580CFA01F11143C1507047000041
:1014700041F2000300F01F018009C4F202034FF0A3
:10148000010CC2580CFA01F122EA0101C150704767
:1014900041F2000300F01F018009C4F202034FF083
:1014A000010CC2580CFA01F11143C1507047000001
:1014B00041F22001C4F202010A6822F44072104392
:1014C0000860704710B5044600F00CF842F62001A1
:1014D000200CC4F200010860A0B2486000F00CF8D3
:1014E00010BD000042F60400C4F20000016841F0A3
:1014F000100101607047000042F60400C4F20000D1
:10150000016821F0100101607047000042F61800E8
:10151000C4F200004168006841EA004070470000E2
:1015200010B50446FFF7DEFF42F61801200CC4F2A6
:1015300000010860A0B24860FFF7DEFF10BD0000A8
:1015400042F60001C4F200010A68104308607047C7
:1015500042F60401C4F200010A6822EA00000860B1
:101560007047000042F60401C4F200010968084017
:1015700018BF01207047000042F60400C4F20000CA
:1015800001688906FCD5704710B50446FFF7AAFF2D
:1015900042F60801C4F30340C4F200010860A0B29F
:1015A0004860FFF7A9FF10BD42F60400C4F2000036
:1015B000016821F00801016001680907FCD5704746
:1015C00080B540F60000C4F201004FF40041FFF77F
:1015D000ADFDB0FA80F0400980BD0000B0B5FFF766
:1015E0002FFC41F20730FFF7B1FB4FF60004C0F6C5
:1015F00007042046FFF7D0FB46F24E15C0F2BC05AB
:1016000020462946FFF744FCFFF7B0FB246806A0FC
:101610002946224601F074FB0CA009A1AC4208BF88
:10162000084601F0BFFDB0BD496E446174613A25C2
:10163000642D2D4F7574446174613A25640D0A0060
:10164000466C61736820504153530D00466C6173C2
:1016500068204641494C0D0080B540F21B70FFF7F1
:10166000F7FE40F21C70FFF7F3FEFFF7C5FDFFF732
:10167000ABF94FF40060FFF76FFE4FF40060FFF727
:101680007BFE4FF48070FFF713FF40F60F00FFF76B
:10169000DFFEFFF727FFFFF787FFFFF76DFF012052
:1016A000FFF74EFFFFF768FF47F6FF70FFF76CFF8D
:1016B000FFF762FF80BD000010B548F68901C8F64B
:1016C0008801A0FB012C4FEA5C12A2FB01144BF233
:1016D000C531C9F2A211A0FB011E08214AF6AB23B5
:1016E00001EBDE21CAF6AA23A1FB033E1301A3EB03
:1016F0005C13A0EB830063091B01A3EB5413A2EB63
:1017000083024FEA1E1303EB4303A1EBC30140F234
:101710005003C2F2000319815A81988110BD000064
:1017200080B543F2F81C43F2C812C0F6000C002842
:101730004FF00000C0F6000218BF94465CF820E0AD
:10174000421CA1EB0E03002B05DD0B2810461946A9
:1017500028BF80BDF2E7D0B240F25002C2F20002D0
:101760009080002B08BF7146D18080BD80B5FFF707
:1017700003FF4FF63D30C6F26140FFF7D1FEFFF7A1
:10178000FBFE80BD80B54FF2E87240F2CB00002135
:10179000C1F6FF72C2F200008B5C435401310C2988
:1017A000FAD10178252924D141787B2921D181786A
:1017B00048291ED1C17853291BD10179392918D163
:1017C0004179362915D18179322912D1C17904297B
:1017D0000FD1017A50290CD1417A362909D1817A69
:1017E000312906D1C07A332803D106A001F0DAFCF2
:1017F00080BD02A001F0D6FCFEE700BF0D0A464105
:10180000494C0D000D0A504153530D0010B500F026
:101810005BF80024C4F2020420460421FFF7F0F82C
:101820003220E06520460421FFF7FCF810BD0000DF
:1018300070B588B04FF4A060FFF70AFE0F200021BA
:1018400001220026FFF782FC0024C4F20204204695
:101850000421FFF71DF901AD2846FFF7C5F94FF444
:101860008070ADF81C004FF4005006903220CDE996
:10187000046040F28400C2F200000230CDE9026050
:101880004CF2FC70201A0190204604212A468DF863
:101890001E60FFF71BF920460421FFF7D5F820460C
:1018A0000421FFF781F9A4F54840402100F07EFCB7
:1018B000204604210222FFF73FF920460421FFF7CA
:1018C000B1F808B070BD000080B5252000210022CD
:1018D000FFF73CFC43F60000C4F201004FF44171F5
:1018E00000F090FC80BD000041F20400C4F2020050
:1018F00050F8041C41F4803140F8041C4FF6FE718E
:1019000050F8043C4A1E8A4203D213F400311146B7
:10191000F6D050F8041C890301D400BFFEE701682B
:101920004FF6FF7201600168CFF2C3720160016877
:1019300041F480610160016821F440310160016877
:1019400041F440310160016811400160016841F0DB
:10195000006141F42011016050F8041C41F08071D5
:1019600040F8041C50F8041C8901FBD5016821F0E3
:1019700003010160016841F002010160016801F0AA
:101980000C010829FAD1704780B5FFF7ADFF80BD83
:1019900080B540F2C000C2F20000006844F6D351A6
:1019A000C1F26201A0FB01018809FEF7A7FD00B1A9
:1019B000FEE70020FEF77AFD80BD0000016841F0DF
:1019C0008001016070470000B1F800C04B888A8830
:1019D00043EA0C0343EA020CCB880A8943EA0C036E
:1019E0001A434B8989891A431143416470470000A7
:1019F000032988BF7047DFE801F0020E050B50F89D
:101A0000181F01E050F81C1F21F00C01016008E0D4
:101A100050F81C1F01E050F8181F21F44061120219
:101A2000016001681143016070470000032900F262
:101A30000181DFE801F002448CD3016A21F0010149
:101A40000162816921F0030181611188036A1943F0
:101A50000162016A21F0020101629188036A19435F
:101A600043F20043C4F201039842016206D042F6F9
:101A70000041C4F20101884240F0DC80016A21F09B
:101A8000040101625188036A19430162016A21F06D
:101A900008010162D188036A19430162416821F497
:101AA000807141601189436819434160416821F4A4
:101AB0000071416051894268114341607047016A79
:101AC00021F010010162816921F440718161118866
:101AD000036A43EA01110162016A21F020010162F7
:101AE0009188036A43EA011143F20043C4F20103FF
:101AF0009842016206D042F60041C4F201018842D8
:101B000040F09880016A21F0400101625188036A27
:101B100043EA01110162016A21F080010162D1886A
:101B2000036A43EA01110162416821F48061416066
:101B30001189436843EA81014160416821F40061F1
:101B400041605189426842EA810141607047016AFF
:101B500021F480710162C16921F00301C161118822
:101B6000036A43EA01210162016A21F40071016202
:101B70009188036A43EA012143F20043C4F201035E
:101B80009842016205D042F60041C4F20101884248
:101B900050D1016A21F4806101625188036A43EAED
:101BA00001210162016A21F400610162D188036AA6
:101BB00043EA01210162416821F4805141601189A9
:101BC000436843EA01114160416821F400514160DA
:101BD0005189426842EA011141607047016A21F46B
:101BE00080510162C16921F44071C1611188036AA9
:101BF00043EA01310162016A21F4005101629188D6
:101C0000036A43EA013143F20043C4F201039842FC
:101C1000016206D042F60041C4F20101884218BFB9
:101C20007047416821F4804141601189426842EA6D
:101C30008111416070470000032988BF7047DFE8C9
:101C400001F0020E050B50F8181F01E050F81C1FA0
:101C500021F07001016008E050F81C1F01E050F80D
:101C6000181F21F4E0411202016001681143016074
:101C70007047000003299CBF00EB8100426370475E
:101C8000032988BF7047DFE801F0020E050B50F80A
:101C9000181F01E050F81C1F21F00801016008E046
:101CA00050F81C1F01E050F8181F21F400611202C7
:101CB00001600168114301607047000010B540F6F3
:101CC000FF71C4F20001884211DC40F2FF71C4F2DE
:101CD0000001884220DCB0F1804F3CD040F200414E
:101CE000C4F20001884247D140F201443EE042F68E
:101CF000FF31C4F2010188421DDC41F20001C4F24F
:101D0000000188422AD041F20041C4F20001884219
:101D100032D140F2054429E040F60001C4F200014E
:101D200088421ED040F60041C4F20001884223D10F
:101D300040F203441AE042F60041C4F20101884235
:101D400012D043F20041C4F20101884218BF10BD15
:101D500040F20D340AE04FF4806407E040F204449E
:101D600004E040F2024401E040F20B342046FFF769
:101D70008FFB2046FFF77CFB10BD0000016841F09F
:101D8000010101607047000080B50A8843F2004CF1
:101D9000826241F6FF72C4F200029042C4F2010C6A
:101DA00013DC40F6FF33C4F20003984222DCB0F1AA
:101DB000804F42D040F20043C4F2000398423CD02E
:101DC00040F60003C4F2000335E044F6FF33C4F2EA
:101DD000010398421FDC42F20003C4F20003984260
:101DE0002BD042F60043C4F20103984225D060454F
:101DF00023D032E040F60043C4F2000398421CD0E6
:101E000041F60003C4F20003984216D041F60043A5
:101E1000C4F200030FE044F60043C4F20103984209
:101E20000BD045F20043C4F20103984205D045F2BD
:101E30000003C4F2010398420FD1036823F070033A
:101E400003604B88026803F060031A4302608A88CB
:101E5000036802F010021A43026041F20002D1F856
:101E600008E020F48063C4F200029342C0F82CE042
:101E700009D0026822F4407202608A89036802F481
:101E800040721A430260604505D042F60042C4F237
:101E90000102904201D1897B0163416941F0010156
:101EA000416180BD2DE9F04381B01546128804469A
:101EB000B2FA82F0470968880126012808BF022685
:101EC000236A00294FEA47083ED023F0100121621F
:101ED000216A4FF0010921F0A0012162216A41EA43
:101EE00002112162A16921F44071A161A16941EA55
:101EF0000020A061A06920F47040A06135F8060FB1
:101F0000A1692F4641EA0030A061206A012140F01A
:101F10001000206237F8022D2046FFF769FD206A85
:101F2000002120F001002062206A6FF0F00220F012
:101F30000A002062206A40EA08002062A06920F0BE
:101F40000300A06104203CE023F001012162216A2A
:101F500021F00A012162216A11432162A16921F065
:101F60000301A161A1690843A061A06920F0F0000C
:101F7000A06135F8060FA1692F4641EA0010A06163
:101F8000206A002140F00100206237F8022D20462F
:101F9000FFF72EFD206A360220F010002062206A32
:101FA000012120F0A0002062206A4FF0100940EAD1
:101FB00008102062A0696FF4704220F44070A061A4
:101FC0000C20A3693343A361A3691A40A2612A8844
:101FD000A36902FA00F01843A061206A40EA0900F0
:101FE00020623A882046FFF703FD01B0BDE8F08388
:101FF000826822F0700282608268114381607047BB
:10200000C2681143C1607047C94301617047000055
:10201000C26800690A40084018BF0120002A18BFA2
:10202000012210407047000039B1802918BF704765
:10203000816841F0800181607047816821F08001F2
:1020400081607047426C012922F4004208BF02F50A
:102050000042426470470000826822F007028260FA
:10206000826811438160704700214FF6FF72016062
:1020700081808260818181737047000010B542F2D7
:102080000044C4F201040246204600210123FEF769
:10209000EDFB20460121FEF727FC00BF2046022170
:1020A000FEF7D2FB0028F9D020460221FEF7C6FB3E
:1020B0002046FEF715FC10BDB0B5044644F6FF30CF
:1020C000C4F200000D4684424FF0000013DD44F6D8
:1020D0000041C4F200018C4219D045F20001C4F263
:1020E00000018C4213D043F60001C4F201018C427E
:1020F00010D103200CE044F20041C4F200018C42F4
:1021000005D044F60001C4F200018C4202D1022045
:10211000FFF7BAF800EB5500B0FBF5F080B2A06015
:10212000B0BD000040686FF35F2070476FF35F2120
:102130004160704710B544F6FF31C4F20001884297
:1021400015DD44F60041C4F2000188421ED045F27C
:102150000001C4F2000188421BD043F60001C4F222
:102160000101884218BF10BD40F20E3416E044F25F
:102170000041C4F2000188420ED044F60001C4F2CE
:102180000001884210D140F2124407E040F21344AB
:1021900004E040F2144401E040F211442046FFF70D
:1021A00077F92046FFF764F910BD0000426901F09D
:1021B000400122F04002426142691143416170478F
:1021C000C16841F40051C160704700008A0910588D
:1021D00001F01F01C84000F001007047426901F49E
:1021E000007122F4007242614269114341617047FB
:1021F000426901F4807122F48072426142691143A4
:102200004161704701F01F02C1F389114FF0010CC9
:102210000B580CFA02F21A430A507047C1F38912A4
:1022200052F800C08A0D105801F01F03C1F3044199
:10223000C8402CFA03F1084000F00100704700008C
:10224000C26822F4C062C260C2681143C1607047B4
:10225000C26822F004021143C1607047026922F48F
:10226000405202610269114301617047C26822F065
:1022700008021143C1607047C26822F48052C260F4
:10228000C2681143C160704770B588B040F2026007
:10229000FFF7DEF840F20960FFF7DAF80320FEF7F7
:1022A000B5FF42F20044C4F20104A4F5E05000215D
:1022B00003221E230026FEF7E3FE4FF4A060FEF784
:1022C000A5FF0025C4F2020528460021FEF7E0FB29
:1022D00042F24C40C4F2010001904FF400700290B1
:1022E00040F20400C2F20000043003904FF400609A
:1022F0000490042005904FF4005006904FF4807035
:10230000ADF81C0001AA284600218DF81E60FEF7DA
:10231000DDFB28460021FEF7A9FB0B20002101224E
:10232000FEF714FF284600210222FEF705FC28468E
:102330000021FEF777FB0020FEF78CFA20460021F3
:10234000FEF730FA204602210122FEF7DBFA204692
:102350004FF480710122FEF7D5FA204601210422B4
:10236000FEF702FA2046002100220123FEF77EFA42
:102370002046012101220123FEF778FA204602219E
:1023800002220123FEF772FA2046032103220123D1
:10239000FEF76CFA204601214FF46022FEF73CFA6A
:1023A000204601210122FEF717FA2046FEF70AFA1D
:1023B0000120FEF70FFB2046FEF7C6F92046FEF788
:1023C000FBF920460121FEF78FFA08B070BD00002E
:1023D00080B5FEF701FE4FF448700421FEF7BAFD08
:1023E000FEF7EAFDFEF7F0FD80BD000080B540F28B
:1023F0000B70FFF72DF87F205F214FF4C07200F0C3
:102400004FFC00F061FC00F069FC00F06FFC002064
:1024100002210022FEF79AFE80BD000080B540F246
:102420002C00C2F200000178002908BF80BD002105
:10243000017002A000F0B6FE80BD00BFB0B4BCFCCD
:1024400031B0B4CFC20D000080B540F20260FEF79B
:10245000FFFF40F60000C4F20100482103224FF4C0
:102460000043FEF70DFE4FF4C060FEF7F1FF282099
:1024700002210222FEF76AFE00200F21FEF7BEFDB8
:102480004FF4004000210122FEF7C6FB4FF400404C
:10249000FEF710FC80BD000080B540F20260FEF740
:1024A000D7FF40F60000C4F20100482103224FF498
:1024B0000043FEF7E5FD80BD80B5FFF781F840F2EF
:1024C000E40CC2F2000C40F2CA019CF80020C2F2F7
:1024D0000001087082F0FF0140F2C8030140C2F21F
:1024E0000003197080F0FF0302EA030240F2C903FF
:1024F000C2F200038CF8000040F22C001A70C2F205
:1025000000001CBF0023C380C388092B05D8012A03
:1025100018BF80BD0121017080BD012904BF0121C8
:10252000417080BD10B50446012841F20000C4F29C
:1025300001004FF4005102D1FEF756FD01E0FEF715
:1025400055FD40F24400C2F20000002C18BF0124E7
:10255000047010BD80B540F20460FEF779FF41F2CF
:102560000000C4F20100102103224FF40053FEF7D3
:1025700087FD40F24400C2F20000816800208847D5
:1025800080BD000010B540F21B70FEF761FF40F205
:102590001C70FEF75DFFFEF72FFEFFF705F8FEF754
:1025A000EBFFFEF7B3FF00F10A04FEF7E5FF20465C
:1025B000FEF788FF0220FEF7C3FF2046FEF782FFEA
:1025C000FEF710FE10BD0000B0B5044644F20750FF
:1025D000CCF22E20A4FB00010A0C40F2A3205043B1
:1025E000A4EBC01000284BF27300C1F26D604FF0F5
:1025F000010318BF03EB1142A2FB0001C80940F21E
:10260000B55100FB1121B1F5B67F05D840F2B27289
:1026100002EB800500201AE040F2D92291424FEAF5
:10262000800005D800F2B375A1F26D1100200EE014
:1026300040F24642914205D800F2B475A1F2DA2187
:10264000002004E000F2B575A1F247410120FFF738
:1026500067F82046FFF730F840F25000C2F2000061
:102660004580B0BD10B524A04AF2A55400F09AFDF3
:1026700046F60440C4F200000088C0B2FEF770F9CC
:10268000A04207D140F61B10FEF758FE012811D1D9
:1026900025A01EE01CA000F085FDFEF7DDFF1EA0BA
:1026A00000F080FDFFF762F801204AF2A551FEF725
:1026B00071F917E040F61C10FEF740FE012801D129
:1026C0001CA006E040F61A10FEF738FE012802D1E1
:1026D0001BA000F067FDFEF767FF0120FEF730FF4B
:1026E000FEF74AFF032001210022FEF72FFDFEF72F
:1026F00003FFFEF7ABFD10BD525443D6D0B6CFB3A7
:10270000F5CABCBBAF0D000052544320C3BBD3D0AD
:10271000C5E4D6C3B9FD0D00525443C5E4D6C3CDBC
:10272000EAB3C90D00000000B5E7D4B4B8B4CEBB1D
:102730000D000000C8EDBCFEB8B4CEBB0D0000001B
:10274000CDE2B2BFD2FDBDC5B8B4CEBB0D00000016
:102750002DE9F04F8BB0054640F202609946924653
:102760008B46FEF775FE40F20360FEF771FE4FF4F4
:10277000C060FEF76DFE40F20B60FEF769FE42F6A8
:102780000044C4F20104A4F5105630461821032277
:102790004FF48073FEF774FC3046182103224FF487
:1027A0000073FEF76DFC3046182103224FF480635E
:1027B000FEF766FCA4F500563046182103224FF4BC
:1027C00080534FF48058FEF75BFC304618210322FB
:1027D0004FF40053FEF754FC3046182103224FF407
:1027E0008043FEF74DFC3046182103224FF400438E
:1027F000FEF746FC07AF3846FFF736FC2046FFF7EA
:102800005DFAADF81C50002520463946CDF81E5023
:10281000CDF824B0ADF828508DF82A50FFF7B4FA5F
:102820000120C0F204000695CDE9040504AD204660
:1028300000212A46FFF7FAF8204601212A46FFF731
:10284000F5F8204602212A46FFF7F0F8204600213D
:102850005246FFF70FFA204600216022FFF7ECF9FD
:10286000204600210022FFF70BFA204601214A46AC
:10287000FFF700FA204601216022FFF7DDF920462C
:1028800001210022FFF7FCF9149A20460221FFF7EC
:10289000F1F9204602216022FFF7CEF920460221FD
:1028A0000022FFF7EDF920460121FFF7CBFB204680
:1028B000FFF784F840F60000C0F200400090FF20CF
:1028C000C2F20000019044F20000C0F20010029039
:1028D00069462046ADF80C80FFF776F830464FF495
:1028E00080510022FEF784FB2046FFF747FA0BB029
:1028F000BDE8F08F2DE9F04788B0DDE91098054676
:102900004FF4E0609A4614460F46FEF7A1FD40F6EC
:102910000000C4F20100182103220F23FEF7B0FBD0
:102920004FF08040FFF7CAF904AE3046FFF79CFB3A
:10293000ADF8105000254FF080403146CDF81250D0
:102940000697ADF81C50FFF71FFA012001AFADF854
:1029500004004FF0804000213A46ADF80850FFF7E0
:1029600065F84FF0804000212246FFF783F94FF0D1
:10297000804000216022FFF75FF94FF08040002186
:102980000022FFF77DF94FF0804001213A46FFF722
:102990004DF84FF0804001215246FFF76BF94FF0A0
:1029A000804001216022FFF747F94FF0804001216C
:1029B0000022FFF765F94FF0804002213A46FFF709
:1029C00035F84FF0804002214A46FFF753F94FF0A7
:1029D000804002216022FFF72FF94FF08040022152
:1029E0000022FFF74DF94FF0804003213A46FFF7F0
:1029F0001DF84FF0804003214246FFF73BF94FF0AE
:102A0000804003216022FFF717F94FF08040032137
:102A10000022FFF735F94FF08040FEF7CFFF4FF06F
:102A20008040FFF7ABF908B0BDE8F087B0B586B0DD
:102A300040F20260FEF70CFD4FF4C060FEF708FDA7
:102A400040F20044C4F2000404F582300421032261
:102A50004023FEF715FB40F20170FEF7F9FC20461B
:102A6000FFF72CF96B2002904FF6FF7000250490C1
:102A700002A92046ADF80C50ADF81450FFF784F9C8
:102A800020460221FFF7C0FA20460221FFF7B8FADC
:102A90001D2000210122FEF759FB4FF48030CDE9C3
:102AA00000056A4620460021FFF7FCF92046502128
:102AB000FFF79EFA20460421FFF7CEFA2046802138
:102AC000FFF7B2FA2046FEF779FF2046FFF756F9E6
:102AD00006B0B0BDF0B585B0064640F204700D46B4
:102AE000FEF7B6FC41F20004C4F200042046FFF7F2
:102AF000E5F801AF3846FFF7B7FA0020CDF8060039
:102B0000ADF810008DF8120020463946ADF804608B
:102B10000395FFF739F920460121FFF775FA2046A2
:102B20000121FFF76DFA362000210022FEF70EFB8F
:102B30002046FFF723F905B0F0BD0000B0B540F224
:102B40000E60FEF785FC40F20260FEF781FC43F662
:102B50000004C4F20104A4F54055284618210322BC
:102B60004FF40073FEF78CFA2846042103224FF439
:102B70008063FEF785FA2046FFF7DCFA20464FF423
:102B8000E131FFF799FA20460021FFF775FB204657
:102B90000021FFF763FB20460021FFF751FB204691
:102BA0000021FFF725FB20460021FFF717FB2046F9
:102BB0000421FFF74DFB20460821FFF757FB204675
:102BC000FFF7FEFAFEF734FEFEF77EFEB0BD000012
:102BD00070B584B040F28405C2F200052878F0B1E7
:102BE0000020697828701FA000F08AF8687868B122
:102BF0004FF0FF361FA400BFA819C178204600F08F
:102C00007FF86878B11C01368142F5D31BA000F033
:102C1000C9FA681C3321FDF7AEFAFEF7F7FD40F262
:102C20005004C2F20004607888B100206070FEF7A2
:102C30006DFC61698847208966896188A288E3887C
:102C4000A589CDE900060EA0029500F059F820787C
:102C500030B1A1690020207088470EA000F0A2FAD0
:102C600004B070BD52656164204C656E3A202564E5
:102C70002000000025303278202000000D000000E8
:102C800025642D25642D25642025643A25643A2584
:102C9000640D0A00C4D6D6D3B4A5B7A20D000000B7
:102CA00042F6004300F07F00C4F20003186001F018
:102CB0007F0010435860704742F6004100F07F00EB
:102CC000C4F200010860704742F60040C4F2000000
:102CD000016841F0800101607047000042F6084041
:102CE000C4F20000002101607047000042F6044079
:102CF000C4F20000016841F40071016070470000F7
:102D00000FB4054B10B503A9044A029800F018F857
:102D100010BC5DF814FB0000210F0008000000202B
:102D200002E008C8121F08C1002AFAD17047704794
:102D3000002001E001C1121F002AFBD170470000F2
:102D40002DE9FF4F8DB00F460546002606E02528E9
:102D50000BD0DDE90F1290476D1C761C28780028F7
:102D6000F5D111B03046BDE8F08F0024A246A1464F
:102D70000122EC4900E0044315F8013F203B02FA30
:102D800003F00842F7D128782A2810D06FF02F02DC
:102D90002878A0F13001092914D80AEB8A0102EB46
:102DA000410144F0020400EB010A6D1CF0E701CF81
:102DB0005FEA000A03D544F40054CAF1000A44F063
:102DC00002046D1C28782E2817D115F8010F44F045
:102DD00004042A280ED06FF02F022878A0F13001C9
:102DE00009290AD809EB890102EB410100EB01092D
:102DF0006D1CF2E757F8049B6D1C28786C280FD0E7
:102E000006DC4C2817D068280DD06A2814D104E0BD
:102E1000742810D07A280FD10DE044F400140AE091
:102E200044F4801401E044F440146978814202D1F2
:102E300004F580146D1C6D1C2A786E2A1FD00CDCE2
:102E4000632A31D004DC002A8BD0582A11D1A3E0A8
:102E5000642A68D0692A0CD165E0732A2ED004DC7C
:102E60006F2A73D0702A04D19BE0752A6FD0782A1C
:102E70006ED01046DDE90F129047761C50E1C4F386
:102E80000250022806D0032809D0042801CF09D017
:102E9000066045E101CFF117C0E9006140E101CFD3
:102EA00006803DE106703BE117F8040B8DF8000049
:102EB00000208DF80100EB46012003E057F804BB29
:102EC0004FF0FF3061074FF0000102D40DE008F130
:102ED0000101884649450FDA8045F8DB1BF80810E8
:102EE0000029F4D108E008F1010188468142FADBAB
:102EF0001BF808100029F6D1DDE90F23AAEB080022
:102F00008146214600F036F9304400EB080604E023
:102F1000DDE90F121BF8010B9047B8F10108F7D259
:102F200021464846F7E00A21C4F302534FF0000B54
:102F30000891022B04D001CFC117032B09D00AE05E
:102F4000FF1D27F00707F7E8020108E032E01FE065
:102F500020E000B2C117042B01D140B2C117031EFB
:102F600071F1000307DA4FF0000CD0EB0C006CEBB2
:102F700001012D2302E0230504D52B238DF82430F5
:102F8000012303E0E30701D02023F7E7984658E048
:102F90000A2110E010210EE010204FF0000B0890E5
:102FA0000CE010214FF0000B44F004044FF008092E
:102FB000089103E008214FF0000B0891C4F302537D
:102FC000022B04D001CF0021032B06D006E0FF1D09
:102FD00027F00707F7E8020103E080B2042B00D1D5
:102FE000C0B24FF0000823072BD5702A07D0DDF8B8
:102FF00020C08CF0100C5CEA0B0C05D00EE04023D6
:103000008DF82430012308E050EA010306D0302374
:103010008DF824308DF8252002239846DDF820C055
:103020008CF0080C5CEA0B0C0BD150EA010301D1C7
:10303000630706D530238DF824304FF00108A9F13D
:103040000109582A04D038A20B9208AA0A920BE070
:103050003AA2F9E75B46089AFDF7EFF80B9B9B5CF9
:103060000A9A521E0A92137050EA0102F2D10A988B
:10307000ADEB000000F1200B600702D524F4803492
:1030800001E04FF00109D94502DDA9EB0B0000E09A
:10309000002000EB0B0141440890AAEB010AE00379
:1030A00006D4DDE90F232146504600F063F80644BC
:1030B0004FF0000908E009A911F80900DDE90F1235
:1030C000904709F10109761CC145F4DBE0030CD5FA
:1030D000DDE90F232146504600F04CF8064404E099
:1030E000DDE90F1230209047761C0899481E0890A1
:1030F0000029F5DC08E00A980A990078491C0A9131
:10310000DDE90F129047761CBBF10001ABF1010B1A
:10311000F1DC21465046DDE90F2300F019F80644A2
:103120006D1C1BE609280100303132333435363747
:103130003839616263646566000000003031323303
:1031400034353637383941424344454600000000A3
:103150002DE9F041044600251E461746880404D494
:1031600005E039462020B0476D1C641EF9D528467D
:10317000BDE8F0812DE9F041044600251E46904649
:10318000C80301D5302700E02027880404D505E0D6
:1031900041463846B0476D1C641EF9D52846BDE847
:1031A000F081000010B5044601E0FDF7B9FE14F807
:1031B000010B04490028F8D1BDE810400A20FDF7B2
:1031C000AFBE0000000000201F0000001D00000036
:1031D0001F0000001E0000001F0000001E00000075
:1031E0001F0000001F0000001E0000001F00000064
:1031F0001E0000001F0000001F0000001C00000057
:103200001F0000001E0000001F0000001E00000044
:103210001F0000001F0000001E0000001F00000033
:103220001E0000001F0000004832000800000020BF
:10323000C8000000202D000810330008C80000203E
:1032400020040000302D00080000000000000000F5
:10325000000000000000000000000000000000006E
:1032600000000000892200087D200008D12300080A
:10327000ED23000800000000000000009924000871
:10328000B92400081D24000849240008000000009B
:10329000552500082525000800000000000000005A
:1032A000000000000000000065260008C925000895
:1032B000852500080000000000000000D52A000855
:1032C000F52800082D2A00085127000800000000FA
:1032D00000000000000000000000000000000000EE
:1032E00000000000000000000000000000000000DE
:1032F00000000000000000000000000000000000CE
:103300003D2B0008D12B000800F36F0600000000E1
:0400000508000131BD
:00000001FF
