:020000040800F2
:1000000008040020490100089F010008970100082A
:100010009B01000891010008A902000800000000EF
:10002000000000000000000000000000CB010008FC
:100030009501000800000000C9010008CD0100087A
:100040006301000863010008630100086301000800
:1000500063010008630100086301000863010008F0
:1000600063010008630100086301000863010008E0
:1000700063010008630100086301000863010008D0
:1000800063010008630100086301000863010008C0
:1000900063010008630100086301000863010008B0
:1000A00063010008630100086301000863010008A0
:1000B0006301000863010008630100086301000890
:1000C0006301000863010008630100086301000880
:1000D0006301000863010008630100086301000870
:1000E0006301000863010008630100086301000860
:1000F0006301000863010008630100086301000850
:10010000630100086301000863010008630100083F
:10011000630100086301000863010008630100082F
:10012000630100086301000863010008630100081F
:10013000DFF810D000F01AF800480047AD030008BF
:10014000AFF30080080400200648804706480047B7
:10015000FEE7FEE7FEE7FEE7FEE7FEE7FEE7FEE777
:10016000FEE7FEE7D501000831010008064C074D07
:1001700006E0E06840F0010394E807009847103477
:10018000AC42F6D3FFF7D8FF480500086805000821
:1001900000BFFEE7704700BFFEE700BFFEE7704705
:1001A00010B5002807DA0A07140E054A00F00F03FD
:1001B0001B1FD45403E00A07130E024A135410BD48
:1001C00018ED00E000E400E07047704710B500F063
:1001D00087F810BD08B53048006840F001002E498E
:1001E000086000BF2C48006800F002000028F9D029
:1001F00000BF2948406840F080002749486000203F
:10020000009002E00098401C009000985028F9D31C
:100210002148406840F090001F494860002000904D
:1002200002E00098401C009000985028F9D300BFCD
:100230001948406820F003001749486008460068E4
:1002400016490840144908600846406814490840A7
:100250001149486008460068104908400E49086086
:100260000846006820F480200860084640680D4970
:10027000084009494860084600680849084006499E
:1002800008604FF41F00886000F032F900214FF041
:10029000006000F0AFF808BD00100240FFFFF6FE5E
:1002A0000C00FFE8FFFF00F700BFFEE702E008C810
:1002B000121F08C1002AFAD170477047002001E0E0
:1002C00001C1121F002AFBD17047000003490860DA
:1002D00000BF024909680029FBD1704700000020D7
:1002E0000448006820B103480068401E01490860C6
:1002F00070470000000000204161704701617047B5
:10030000F0B5044616460025002201F00F0501F065
:10031000100707B1354300201EE0012787401F402A
:10032000C7B122684FEA800C0F2707FA0CF7BA43CF
:10033000870005FA07F73A43282904D101278740A7
:100340001F40676105E0482903D1012787401F400E
:1003500027612260471CB8B20828DED3082022E0BB
:10036000012787401F40E7B16268A0F108074FEA04
:10037000870C0F2707FA0CF7BA43A0F10807BF0054
:1003800005FA07F73A43282904D1012787401F407F
:10039000676105E0482903D1012787401F40276195
:1003A0006260471CB8B21028DAD3F0BD00F0A4F8A0
:1003B00040F2046000F02AF84FF4005303221021A9
:1003C0000B48FFF79DFF11E04FF400510848FFF77D
:1003D00093FF4FF4FA70FFF779FF4FF40051044890
:1003E000FFF78CFF4FF4FA70FFF770FFECE70000A7
:1003F00000100140034A0A400243034B1A60BFF356
:100400004F8F704780FFFF1F08ED00E0064A02EBA8
:100410009011096800F01F0301229A401143024B1A
:1004200003EB901211607047001002400020002181
:100430002C4A126842F480322A4B1A6000BF401CDA
:10044000284A126802F4003119B94FF6FF7290423F
:10045000F5D1244A126802F400320AB900BFFEE75F
:10046000204A52681F4B5A601A4652685A601A4610
:10047000526842F480625A601A46526822F440324E
:100480005A601A46526842F440325A601A4652681C
:10049000154B1A40134B5A601A465268134B1A43B5
:1004A000104B5A601A46126842F080721A6000BF00
:1004B0000C4A126802F00072002AF9D0094A526808
:1004C00022F00302074B5A601A46526842F00202B9
:1004D0005A6000BF034A526802F00C02082AF9D1A0
:1004E0007047000000100240FFFFC3F7000028081B
:1004F00010B5FFF79BFF10BD10B5124800684FF410
:100500007A71B0FBF1F4601EB0F1807F01D301205D
:100510000FE0601E4FF0E02148610F214FF0FF30E7
:10052000FFF73EFE00204FF0E021886107200861C0
:10053000002008B100BFFEE70021481EFFF730FE93
:1005400010BD000004000020680500080000002025
:1005500008000000AC020008700500080800002038
:1005600000040000BC0200080000000000F36F0659
:0400000508000131BD
:00000001FF
