:020000040800F2
:10000000C0D9002069010008B1020008A902000857
:10001000AD020008A30200089D03000800000000D4
:10002000000000000000000000000000B502000811
:10003000A702000800000000B3020008B702000891
:100040008301000883010008830100088301000880
:100050008301000883010008830100088301000870
:100060008301000883010008830100088301000860
:100070008301000883010008830100088301000850
:100080008301000883010008830100088301000840
:100090008301000883010008830100088301000830
:1000A0008301000883010008830100088301000820
:1000B0008301000883010008830100088301000810
:1000C0008301000883010008830100088301000800
:1000D00083010008830100088301000883010008F0
:1000E00083010008830100088301000883010008E0
:1000F000830100088301000883010008000000005C
:10010000830100080000000083010008830100084B
:1001100083010008830100088301000883010008AF
:10012000830100088301000883010008830100089F
:10013000830100088301000883010008830100088F
:10014000830100088301000883010008830100087F
:10015000DFF810D000F068F800480047D9320008F6
:10016000AFF30080C0D9002006488047064800470A
:10017000FEE7FEE7FEE7FEE7FEE7FEE7FEE7FEE757
:10018000FEE7FEE7C10200085101000840EA010352
:100190009B0703D009E008C9121F08C0042AFAD23D
:1001A00003E011F8013B00F8013B521EF9D2704701
:1001B000D2B201E000F8012B491EFBD270470022A9
:1001C000F6E710B513460A4604461946FFF7F0FF56
:1001D000204610BD421C10F8011B0029FBD1801ADB
:1001E000704730B504460020034600E05B1C934294
:1001F00003D2E05CCD5C401BF8D030BD30B50B467F
:10020000014600202022012409E021FA02F59D4246
:1002100005D303FA02F5491B04FA02F52844151E1A
:10022000A2F10102F1DC30BD064C074D06E0E068AA
:1002300040F0010394E8070098471034AC42F6D32D
:10024000FFF78AFFCC7B0008EC7B000870B58C18A8
:1002500010F8015B15F0070301D110F8013B2A11DA
:1002600006D110F8012B03E010F8016B01F8016BC7
:100270005B1EF9D12B0705D40023521E0DD401F8C3
:10028000013BFAE710F8013BCB1A921C03E013F88C
:10029000015B01F8015B521EF9D5A142D8D30020C1
:1002A00070BD00BFFEE7704700BFFEE700BFFEE77E
:1002B00070477047704710B507F0C4F810BD0000D4
:1002C00008B53148006840F001002F49086000BFC0
:1002D0002D48006800F002000028F9D000BF2A482D
:1002E000406840F08000284948600020009002E00B
:1002F0000098401C009000985028F9D3224840688C
:1003000040F09000204948600020009002E00098F2
:10031000401C009000985028F9D300BF1A4840684C
:1003200020F0030018494860084600681749084053
:100330001549086008464068154908401249486058
:1003400008460068114908400F49086008460068DF
:1003500020F480200860084640680E4908400A4999
:1003600048600020C862084600680B4908400649FA
:1003700008604FF47F00886003F0FCFF00214FF01D
:10038000006003F03FFA08BD00100240FFFFF6FED8
:100390000C00FFE0FFFF00DFFFFFF6EA00BFFEE713
:1003A0000FB4054B10B503A9044A029800F02CF8CD
:1003B00010BC5DF814FB0000AD1E000868010020B1
:1003C0000FB4084B10B504A902AA039800F01CF85A
:1003D000044602A9002000F0F3F8204610BC5DF8A6
:1003E00014FB0000C105000802E008C8121F08C184
:1003F000002AFAD170477047002001E001C1121FA6
:10040000002AFBD1704700002DE9FF4F8BB09A46C0
:100410000F460546002606E025280BD052460D99CA
:1004200090476D1C761C28780028F5D10FB0304617
:10043000BDE8F08F0024A0460122604900E004439B
:1004400015F8013F203B02FA03F00842F7D1287863
:100450002E2817D115F8010F44F004042A280ED0D5
:100460006FF02F022878A0F1300109290AD808EB93
:10047000880102EB410100EB01086D1CF2E757F81F
:10048000048B6D1C287869283ED006DC0028CDD06E
:1004900063280BD0642804D136E0732810D0752867
:1004A0004BD052460D999047761C85E017F8040B07
:1004B0008DF8000000208DF80100E946012003E0DE
:1004C00057F8049B4FF0FF3061074FF0000401D450
:1004D0000AE0641C44450DDA8442FADB19F8041082
:1004E0000029F6D106E0641C8442FCDB19F80410F4
:1004F0000029F8D1264404E019F8010B52460D9961
:100500009047641EF8D257E001CF4FF00A0B002845
:1005100002DA40422D2102E0210504D52B218DF87D
:100520002410012103E0E10705D02021F7E70DF1B8
:10053000200908910CE00021F9E701CF4FF00A0BE8
:10054000F9E75946FFF75AFE01F1300209F8012D8B
:100550000028F6D1ADEB090000F1200B600701D4B3
:100560004FF00108D84502DDA8EB0B0000E00020A9
:100570008046002406E009A85246005D0D99904788
:10058000641C761C08988442F5DB04E03020524657
:100590000D999047761CB8F10001A8F10108F5DC2F
:1005A00005E019F8010B52460D999047761CBBF1F6
:1005B0000001ABF1010BF4DC6D1C34E709280100EC
:1005C0000A68531C0B601070704770B505460E46E4
:1005D00000BF05B970BD00BF2C6A4CB1607A082815
:1005E00006D13068A16A884202D1284600F0ACF8F2
:1005F00000BFEFE72DE9F04107460C46164600BF65
:100600001FB96FF00F00BDE8F08100BF00BF14B943
:100610006FF00500F7E700BF00BF00BF00BF00BFDD
:1006200000224FF49A71104603F0F8F8E060E06899
:1006300010B94FF0FF30E6E700BF00BF032E09D02E
:10064000A07A20B93E480068401C3D4908603C48FB
:1006500000682060E068406820610120216908701E
:100660002169487097F82800216988700020216965
:10067000C870206802F09AFD216948600020216955
:100680000881216948812169C860082E0BD0042E99
:1006900009D0072E07D0032E08D1607A052802D092
:1006A000607A042802D178682169C8600020216935
:1006B0000861216948612169886100250FE097F888
:1006C0002800A84205DD062D03D207F12900405D70
:1006D00000E0002021691C314855681C85B2102DAE
:1006E000EDD3002505E0002120692C304155681C20
:1006F00085B2402DF7D3002505E0002120696C303C
:100700004155681C85B2802DF7D30E482169C1F888
:10071000EC000020A082002504E02069F03045555F
:10072000681C85B2442DF8D301223521204600F003
:100730006BF83146204600F077F8002063E70000B0
:10074000D8000020638253632DE9FC4105462C6AE2
:1007500000260C21204600F0B4F804222146284649
:10076000FFF748FF064616BB04223221204600F060
:100770004BF8A06A02F01AFD80464146204600F080
:100780005CF8204600F07AF8A28AF03291B2E06874
:1007900003F0C3FA0F48CDE9005043230E4A0F4837
:1007A000E168006806F0A6FF204600F019F8A07A7C
:1007B000FF2802DAA07A401CA07242F2107707F2FA
:1007C000F3104FF4FA7190FBF1F0E0823046BDE88F
:1007D000FC810000907A0008947A0008D000002084
:1007E00010B5044600BF04B910BD00BF00BF00BF74
:1007F00000BF00BFE06810B1E06803F0F2F900202C
:10080000E060206100BFEFE710B500BF00BF848A41
:10081000631C83820369F0331955848A631C8382C5
:100820000369F0331A5510BD00BF00BF838A5A1CFC
:1008300082820269F032D154704710B500BF00BF08
:100840000B0E848A621C82820269F0321355C1F356
:100850000743848A621C82820269F0321355C1F315
:100860000723848A621C82820269F0321355848ACB
:10087000621C82820269F032115510BD00BF00B9BE
:10088000704700BF00BF00BF00BF00BFFF22838AC8
:10089000591C81820169F031CA5406E00022838A22
:1008A000591C81820169F031CA54818A442903D3D9
:1008B000017D01F0030111B1818A4429EED300BF0B
:1008C000DEE7427A8A4203D0417200228272C282FB
:1008D00070470A4600BF00BF114683681B680B6063
:1008E00083681960704702469068016831B10868F2
:1008F0009368186000BF00BF084670470020FCE7FF
:100900000020134908681349084000BF10490860D7
:1009100000210F4A51609160D160114688694FF6FD
:100920004171084040F08000114688610021D1618A
:10093000094988690949084040F0087006498861FA
:1009400008680749084007480349086070470000E5
:10095000008002400F8130FD00900240233FDEF80E
:100960007D0000F80060C10210B540F60E2003F0D3
:10097000FDFB40F60E2003F0E9FB00F085FB10BD07
:1009800008B500210091009002E00099491E0091F5
:1009900000990029F9D108BD02464FF0FF30062921
:1009A0001DD2DFE801F018160B0307149388C3F378
:1009B0000C0015E05368C3F30C4011E01368C3F357
:1009C0000D40042801D9001F00E0002008E09068D5
:1009D00006E0906804E01378C3F3C30000E000BFB2
:1009E00000BF7047416821F000414160704700003E
:1009F0002DE9F043044600210025002600278C46FF
:100A0000B4F5E00F0FD12348234B052540F2F456EF
:100A10004FF48017DFF88480C8F81000DFF880807A
:100A2000C8F800000FE01F481F4B052540F2F456A0
:100A3000EF0744F2F45CDFF86480C8F80C00DFF8DC
:100A40006C80C8F800004FF00008DFF86490C9F827
:100A50000080DFF86090C9F80080002115E000EB0D
:100A600001121760C2F804C001FB0638C2F8088002
:100A7000A5F10108884506D900EB011808F1100816
:100A8000C2F80C8000E0D060491CA942E7D3BDE861
:100A9000F0830000F00100200420002000900240BC
:100AA00018000020A0010020400200201C000020AF
:100AB000240000202000002000B500F0EFFC00F032
:100AC000E1FB00BD30B502460C4600210023324850
:100AD0000068006800F0004008B1002030BD2AB373
:100AE0002D480068008800F4004000BB2A480068D8
:100AF000008800F48070D0B127480068008800F4B6
:100B00000070A0B1244800680068C0F30D431B1FAB
:100B1000A34201D90020E1E7002105E01E4800685A
:100B20008068405C5054491C9942F7D301E0002092
:100B3000D4E74FF00040184D2D68286017484069F1
:100B400000F0800020B18020144D68610020A86072
:100B500011480068808800F4804028B10E48006881
:100B6000C0680D4D286014E00B480068808800F4D0
:100B7000004020B10948C068074D286009E00748D7
:100B80000068C0F384050448006810302844024D12
:100B900028600120A2E700001C0000200090024015
:100BA00070B5034600222F480068006800F000403E
:100BB00008B1002070BD40F2F450814201D90020FC
:100BC000F8E74BB1002205E0985C264E3668B6681F
:100BD000B054521C8A42F7D3224800684160214831
:100BE0000068006840F040501E4E366830601D4876
:100BF0000068006840F000401A4E366830601A48BD
:100C0000406900F004051848406900F0200405B967
:100C10002CB145EA0400144E706100207060114848
:100C20000068006800F4801028B10E480068C068B1
:100C30000C4E306014E00B480068006800F40010AF
:100C400020B109480069074E306009E00648006895
:100C5000C0F384060348006810303044014E306011
:100C60000120A7E7180000200090024010B540F2D4
:100C7000026003F05BFA40F2036003F057FA40F2BF
:100C8000046003F053FA4FF48073032218212948BB
:100C900001F08CF94FF4C06003F048FA4FF40040C3
:100CA00003F074FA1C2003F09BF91C2003F0A8F950
:100CB0004FF0306003F0BEF84FF4000001F068F927
:100CC0000223032204211B4801F070F904230322AC
:100CD0001821184801F06AF98023032204211548DD
:100CE00001F064F9022303221821134801F05EF990
:100CF000102303220421104801F058F92023032275
:100D000004210D4801F052F94FF400630322182129
:100D10000A4801F04BF94FF4805303221821074889
:100D200001F044F94FF4005303221821034801F065
:100D30003DF910BD0008014000100140000C0140C9
:100D40002DE9F74F82B081468A460024002500260F
:100D50000027A046002001908346009000F0E2F9B1
:100D600048B9BF48FFF70CFE00F0DCF918B900984D
:100D700005B0BDE8F08FFFF7C3FD4F46012F5CD1F2
:100D800000BF01AB01221146002000F02DFABDF892
:100D9000040000F00400019008F10108BDF804000F
:100DA00010B9B0488045ECD3AE48804501D10098D9
:100DB000DEE74FF000084FF48050019001AB0022B5
:100DC0000121022000F010FA8346BBF1000F01D18F
:100DD0000098CDE700BF01AB01221146002000F0D2
:100DE00003FABDF8040000F02000019008F10108AA
:100DF000BDF8040010B99B488045ECD39948804564
:100E000001D10098B4E74FF0000801AB1022012196
:100E1000002000F0E9F9BDF8040000F0040010B172
:100E20004FF4006700E00027BDF8040000F0020066
:100E300000B11DE047F480471AE007F40060C008E5
:100E4000019007F48040BDF8041041EA5000019081
:100E500001AB00220121022000F0C6F98346BBF15C
:100E6000000F01D1009883E76FF07F40FFF788FD06
:100E70007D48046824F4B0443C4304600AF4806074
:100E800070B17948006840F480607749086077481D
:100E9000846924F080640AF08060044373488461AC
:100EA00071484068049908436F4948607048007869
:100EB00000F00100A0B16E484568084604682E465F
:100EC00024F0800406F08006344304606748846997
:100ED0002E4624F0C00406F4407644EA9604846169
:100EE0006348007800F0020040B1614886685F48BE
:100EF00004686048044034435C4804605C480078FF
:100F000000F0040040B15A48C668584804685A487E
:100F100004403443554804605548007800F0080008
:100F200048B153480669514804684CF202008443B2
:100F300034434E4804604E48007800F0100040B141
:100F40004B484669494884694C4804403443474803
:100F500084614748007800F0200040B1444885692A
:100F600042488469464804402C43404884614048D4
:100F7000007800F0400038B13D48C5693A48C4697E
:100F80006FF310042C43C4613948007800F08000EE
:100F9000C0B13748056A344884692E464FF641701F
:100FA00004408643344330488461304880300468CC
:100FB0002E4624F0770406F4EE4644EA16242B4825
:100FC000C0F880402A48008800F4807018B1284892
:100FD000406A254988602648008800F4007018B1EE
:100FE0002348806A2049C8602148008800F4806056
:100FF00048B11F48C56A1C48446840F2DE7084430B
:101000002C43194844601A48008800F4006040B13D
:101010001748056B144804681A4804402C431248CA
:1010200004601348008800F4805038B11048456BC4
:101030000D48046824F440042C4304600C480088E4
:1010400000F4005038B10A48856B0748046824F45E
:1010500060242C43046001200090009888E6000082
:10106000FFFF8F00FFFF040000800240009002405D
:10107000C83D0020FFFFFEFCFFC001FFE73FDEFD93
:10108000FBFFFFFE8FDDFEFF00200849086048607F
:101090008860C860086148618861C8610862486208
:1010A0008862C8620863486388637047C83D00204F
:1010B0000A794B7942EA0322084B03441A64CA783E
:1010C00012068B7842EA03424B7842EA03220B78FD
:1010D0001A43024B03445A647047000000800240E8
:1010E00010B5002440F20E5003F020F840F20F50EB
:1010F00003F01CF84FF4A26003F018F8FFF734FC7B
:1011000000F068F904460CB900BFFEE700224FF476
:1011100080610120FFF714FE0149086010BD000046
:1011200000000020F8B500262848056925F01C05B8
:10113000012002F08BFE04462548844205D3254851
:10114000844202D245F008051DE02248844205D3BE
:101150002148844202D245F00C0514E01E48844226
:1011600003D31E48844200D20DE01C48844202D3BF
:101170001B48844202D31A48844202D145F0040538
:1011800001E03046F8BD114805614FF40040009081
:101190006B4600220121022000F026F808B93046F3
:1011A000F0E71048FFF7ECFB6B46002201211046E8
:1011B00000F01AF808B93046E4E7BDF8000000F482
:1011C000004000B901263046DCE700000080024004
:1011D000002D3101C00E160200879303804A5D0581
:1011E00000F36F06FFFF04002DE9F04104460D46B1
:1011F00000270020DFF884C0DCF810104FF6C37C15
:1012000021EA0C014FF4F86C0CEA821C4CEA040C45
:101210004FF4784808EAC5284CEA080C4CF0010C59
:101220004CEA0101022C05D1B3F800C0DFF84C8074
:10123000C8F814C0DFF844C0CCF8101000BFDFF8C5
:101240003CC0DCF810C00CF001067F1C1EB1DFF8BA
:1012500030C06745F3D1DFF824C0DCF810C00CF0D3
:10126000010CBCF1000F00D101202CB9DFF80CC03B
:10127000DCF814C0A3F800C0BDE8F0810080024093
:10128000FFFF04000648006840F0040004490860BD
:101290000448806940F002000249886170470000FC
:1012A00000800240009002404FF00040264909684B
:1012B000086025480068808800F48040E8B1234831
:1012C0000068A0B121480068C0681F4908601F4835
:1012D0000068006828B11D48006800681B49086064
:1012E00030E01A4800681030184908602AE01648B3
:1012F0000068C0681449086024E0134800688088CA
:1013000000F4004060B11248C0680F4908600F48FF
:101310000068B8B10D48006800680C49086011E029
:101320000B480068C0F38401074800681030084487
:10133000054908600548006820B10448006810307D
:1013400002490860704700001C00002024000020B3
:101350000090024000B500231C480068026802F0BB
:10136000004008B1002000BD02F4004028B902F49A
:10137000807010B102F4007018B9FFF795FF0120DA
:10138000F1E702F0200030B102F0010018B1FFF7E0
:101390008BFF0120E7E702F0004060B902F4004053
:1013A00048B902F4807030B102F4007018B1C2F391
:1013B0000D431B1F08E006480068401C04490860F4
:1013C000FFF772FF0120CEE71846CCE71C00002093
:1013D0002800002010B5002100200B4B1B6843F0B3
:1013E0000103094C236000BF074B1B6803F0010297
:1013F000491C12B1054B9942F6D1034B1B6803F00F
:10140000010303B9012010BD00900240FFFF04005A
:1014100070B50024FFF72AFCFFF762FE1848006849
:1014200008B900BFFEE7042002F0A8FF012002F087
:101430000DFD04466420B4FBF0F1481EB0F1807F3E
:1014400000D31BE0481E4FF0E022506150170F22DE
:10145000002807DA13071E0E0A4B00F00F052D1F98
:101460005E5503E013071D0E074B1D5400BF0020FF
:101470004FF0E02290610720106100BF70BD0000B6
:101480000000002018ED00E000E400E0026822F413
:101490004002026002680A430260704700B50748D4
:1014A000006840F008000549086000F00BF80448A7
:1014B000806940F400500249886100BD008002400C
:1014C0000090024010B500220020094B9B6943F4B4
:1014D0008013074CA36100BF054B9B6903F4801187
:1014E000521C11B1034B9A42F6D301B9012010BD31
:1014F00000900240FFFF04002DE9FC5F05460F4607
:101500004FF00A08C1460A260024B246A34600202E
:101510000190009000BF5CE004EB44004D4A02EBF8
:10152000C000017D0A2E02D109B966B24FE0002940
:101530004DD000BF00BF5DB104EB4402454B03EB4F
:10154000C20228685268904202D160B2BDE8FC9F96
:10155000012928D104EB44003E4A52F8300078B10A
:1015600004EB440002EBC000408A58452FDB4FFAE1
:1015700084FA04EB440002EBC000B0F812B026E09D
:1015800004EB4400334A02EBC000428A01988242D5
:101590001DDB4FFA84F804EB44002E4A02EBC00036
:1015A000408A019013E0022911DB04EB4400294A30
:1015B00002EBC000428A0098824208DB4FFA84F9AD
:1015C00004EB4400234A02EBC000408A0090601CF8
:1015D000C4B20A2CA0DB07F0020020B90A2E05D104
:1015E00007F0010010B94FF0FF30AFE70A2E01DA23
:1015F000F4B21AE0B9F10A0F03DA09F0FF0400BFF0
:101600000EE0B8F10A0F02DA08F0FF0408E0BAF1C0
:101610000A0F02DA0AF0FF0402E04FF0FF3095E70C
:1016200000BF00BF204600F017F800BF00BF00BF9A
:1016300000BF35B104EB4401064A02EBC101286842
:101640004860002004EB4401024A02EBC1014882D9
:1016500060B27BE7CCD4002010B5044604EB440014
:101660000C4951F8300060B104EB4401094A52F8CA
:10167000310002F0B6FA002004EB4401054A42F8BA
:101680003100002004EB4401024A02EBC10108755D
:1016900010BD0000CCD40020F0B587B007460D4641
:1016A00000BF0DB907B0F0BD00BF7C682088B0F561
:1016B000807F08D12079062805D16079042802D1DD
:1016C0006088082803D0384602F08BFAEAE7D4F89D
:1016D0000E000690A0690590686808B9002607E02A
:1016E00005986968884201D1012000E00020064683
:1016F0000EB1012000E00220034604F1080206A911
:10170000284600F0B5FAE088B0F5807F03D0B0F548
:10171000007F19D113E086B1022206AB04F1080064
:10172000291DCDE90232CDE9001005F12903024659
:101730002531284600F0C0F900E000BF05E006A909
:101740002846FEF742FF00E000BF00BF384602F027
:1017500048FA00BFA6E700002DE9FE43054689468A
:101760001446A04600BF00BF00BF00BF00BF00BFBF
:101770002946206800F03AFF08B1414F75E0207813
:1017800000F0F000E02815D101208DF804000020C1
:101790008DF805005E208DF80600607800F07F006F
:1017A0008DF80700A0788DF80800E0788DF8090022
:1017B00001AF59E02068A9680840D5E9011211403D
:1017C00088420ED0208880B24FF6A961884208D0A6
:1017D000E86810B105F10C0803E06FF00300BDE804
:1017E000FE832848007800EB4000274901EBC00049
:1017F000007D022812DB2349097801EB4101224ACE
:1018000002EBC101D8F800004968884206D11D48A2
:1018100002784946284600F039F8E0E700261BE048
:1018200006EB4600184901EBC000007D022811DBE1
:1018300006EB4601144A02EBC101D8F800004968E2
:10184000884207D10F490E70F2B24946284600F08F
:101850001DF8C4E7701C46B20A2EE1DB4A46414639
:10186000284600F06FF8BAE700BF4FF400603B462F
:1018700005F1290249460090284600F0BDFAAEE77E
:10188000987A0008DC000020CCD40020F8B505468A
:101890000E46144600BF00BF04EB4400284901EB8C
:1018A000C000007D022839D104EB440001EBC000E8
:1018B000408AB0F58E7F11DD04EB44000A4602EB4E
:1018C000C000011D284600F043F938BB032004EB9B
:1018D00044011B4A02EBC10108751FE004EB440000
:1018E000174901EBC000408AB0F5877F16DB04EB97
:1018F00044000B4603EBC00000F10C0204EB440073
:1019000003EBC000011D284600F02EF930B903207A
:1019100004EB44010A4A02EBC10108754FF4006070
:10192000009004EB4400064901EBC00000F10C03F9
:1019300005F129023146284600F05EFAF8BD0000A4
:10194000CCD400202DE9FC5F80460E46174608F1F6
:1019500029094FF0FF3001904FF0000A41463068EE
:1019600000F044FE38B9307800F0F000E02802D0F2
:101970000EB1306818B96FF00F00BDE8FC9F424609
:1019800001213046FFF7B8FD0446002C01DA20465D
:10199000F3E704EB4400464901EBC000007D78B951
:1019A0004FF0010A012004EB4401414A02EBC1015E
:1019B000087504EB4400114601EBC000C0F8088034
:1019C00000BF00BFBAF1000F00D13FB93146404619
:1019D00000F0BEF801900FB90198CEE700BF00BF3C
:1019E00004EB4400324901EBC000007D022812DB09
:1019F00030490C704FF40060009004EB44002C4917
:101A000001EBC00000F10C034A463946404600F0A5
:101A1000F3F9019049E004EB4400254901EBC000D3
:101A2000007D012841D14FF0000B3D4608E000BF8A
:101A300000BF287B012802D04FF0010B02E02D6887
:101A4000002DF4D100BFBBF1000F10D02989002276
:101A5000022001F0E3FE05466DB13946284602F04A
:101A600017F840B1284602F0BCF8002503E03D46D7
:101A7000284602F092F9A5B104EB44000C4951F854
:101A8000300030B104EB4401094A52F8310002F051
:101A9000A8F804EB4400064941F8305000200190BA
:101AA00002E04FF0FF30019000BF019865E70000B1
:101AB000CCD40020DC0000202DE9FC5F81460E46DE
:101AC00017469846DDE90CAB0020019000BF00BF2F
:101AD00000221C21022001F0A1FE05461DB94FF095
:101AE000FF30BDE8FC9F00BF00BF6C680F9801F09D
:101AF0006AFBE08000BF00BFD8F80000A060B8F823
:101B00000400A081DBF80000C4F81200BBF8040058
:101B1000E082DAF80000C4F80E000E980068A061B8
:101B20004FF48070208008206080062020710420FF
:101B3000607140F606003B46324629460090484612
:101B400000F05AF9284602F04CF800250198C8E741
:101B500070B504460D46034A2946204600F004F8B5
:101B600070BD0000987A00087FB504460D46164601
:101B70000121074A201D04F129038DE82500039166
:101B8000324619462046FFF797FF04B070BD0000AB
:101B90009E7A000870B5002465E004EB44003349E8
:101BA00001EBC000057D002D5BD004EB440001EB90
:101BB000C000408A401C04EB44012C4A02EBC101E6
:101BC000488204EB4400114601EBC000408AB0F5A6
:101BD000967F0DDA04EB440001EBC000007D012884
:101BE0000AD104EB440001EBC000408A052803DB66
:101BF0002046FFF731FD34E004EB44001B4901EBC4
:101C0000C000007D032807D1042004EB4401174ADB
:101C100002EBC101087524E004EB4400134901EB19
:101C2000C000007D042807D1022004EB44010F4AC4
:101C300002EBC101087514E004EB44000B4901EB11
:101C4000C000007D01280CD104EB44020B4603EBDD
:101C5000C202111D04EB440203EBC2029068FFF7BD
:101C600077FF601CC4B20A2C97DB70BDCCD4002077
:101C70002DE9F84306460D461746984600BF00BFBB
:101C80005DB1286848B13146286800F0AFFC20B942
:101C9000287800F0F000E02803D16FF00F00BDE8D5
:101CA000F883324641462846FFF726FC0446002CBE
:101CB00001DA2046F3E7022004EB44011B4A02EB61
:101CC000C101087504EB4400114601EBC0008660B9
:101CD00004EB440001EBC0003968C160B98801829F
:101CE000002004EB440102EBC101488204EB4400F4
:101CF000114651F83000B0B104EB440051F8309077
:101D0000002004EB440142F831004FF400603B46F0
:101D100006F1290249460090304600F06DF8484629
:101D200001F05FFF00BF0020B9E70000CCD4002025
:101D30002DE9F04104460F460E2660890E2800DC8E
:101D400053E06568B5F80C80287800F00100B0B168
:101D50002878012809D1687888B9A8785E280ED13A
:101D6000607B40F01000607309E00622214928469C
:101D7000FEF737FA18B9607B40F008006073B8F1DD
:101D8000080F03D0B8F5C16F2AD114E097F82F00DF
:101D900000F0080000B928E06089B04205DB70421D
:101DA00001B2204601F060FF00B11EE03946204636
:101DB00000F024FD15E097F82F0000F0080000B9AE
:101DC00013E06089B04205DB704201B2204601F0A9
:101DD0004BFF00B109E039462046FFF75DFC00E00B
:101DE00003E000BF0020BDE8F081204601F0F9FECD
:101DF0000020F8E7987A00082DE9F04706460D46DE
:101E000017469846DDF82090484601F0DCF98246F6
:101E10000E21284601F028FF00B115E06C68A4F8F7
:101E20000CA0D8F800002060B8F80400A080386842
:101E3000C4F80600B888608100BF00BF294630465C
:101E4000B2699047BDE8F0876FF00100FAE7000043
:101E500010B5044600BF00BF472084F8300044217D
:101E600031200155044860610448A061204601F01A
:101E700001F9002010BD0000591700085D3100086D
:101E800070B50446204601F03BF9064616B94FF0FE
:101E9000FF3070BD214630462269904705461DB18E
:101EA000304601F09EFE00262846F2E770B5044653
:101EB0000D46E1B2054805F0C5FC00BF0721034807
:101EC00005F011FD0028F9D0204670BD0038014012
:101ED00070B5054600242748854200D103E0264816
:101EE000854200D10124254931F8140002F01EF981
:101EF000234931F8140002F019F9224951F824302D
:101F0000214951F824000322182100F04FF81F49FD
:101F100051F824301C4951F824000322042100F018
:101F200045F8284605F092FC4FF4E131284605F0CB
:101F300041FC0021284605F019FD0021284605F046
:101F400005FD0021284605F0F1FC0021284605F09A
:101F5000E3FC0021284605F0D5FC0421284605F0C5
:101F6000EDFC0821284605F0F9FC284605F0B6FCF2
:101F700070BD0000003801400044004024010020F2
:101F8000080100200C0100201C0100201401002089
:101F90000549496821F40001034A51601146496826
:101FA000014351607047000000000140F0B5044655
:101FB00016460025002201F00F0501F0100707B1B9
:101FC000354300201EE0012787401F40C7B122682B
:101FD0004FEA800C0F2707FA0CF7BA43870005FA7F
:101FE00007F73A43282904D1012787401F4067613A
:101FF00005E0482903D1012787401F40276122605F
:10200000471CB8B20828DED3082022E00127874009
:102010001F40E7B16268A0F108074FEA870C0F275D
:1020200007FA0CF7BA43A0F10807BF0005FA07F753
:102030003A43282904D1012787401F40676105E002
:10204000482903D1012787401F4027616260471C50
:10205000B8B21028DAD3F0BD2DE9F04190B00746B0
:102060000D4690466C683549200ECDE90001E1B27D
:10207000C4F30743C4F3072231A0FEF791F9200E01
:102080008DF80800200C8DF80900200A8DF80A0050
:10209000E0B28DF80B009DF808009DF80910CDE91D
:1020A00000109DF80A309DF80B2032A103A8FEF71E
:1020B00087F903A935A0FEF773F90121242001F067
:1020C00023F906463146284602F058FA3149284697
:1020D00002F0ACFC3049284604F0D4FA03A8FEF71D
:1020E00079F886B20123324603A9284604F0C9FED6
:1020F0009DF808009DF80910CDE900109DF80A3000
:102100009DF80B2025A103A8FEF75AF903A91FA0EB
:10211000FEF746F92C48FEF75DF886B201233246F9
:102120002949284604F0ADFE0123AD220349284683
:1021300004F0A7FE002010B0BDE8F081A47A0008EA
:102140000A0D54656C6E65742068656C6C6F5F6712
:102150006967616465766963655F6163636570740F
:102160003A25642E25642E25642E256420202573AF
:102170000000000054656C6E65743A25642E256479
:102180002E25642E256420202000000025730D0AD2
:1021900000000000CD2100080D220008596F757263
:1021A0002074656C6E657420636F6D7075746572F4
:1021B00027732049502069733A2025642E25642E08
:1021C00025642E25640A00007C79000870B5044659
:1021D0000E462546284601F0A9F870BD10B503F05B
:1021E0002EF9044617220749204602F0CBF9FF21B9
:1021F000204603F075F804460349204602F04FF9E3
:1022000010BD0000907A0008592000082DE9FF5FFA
:10221000824615469B465446002D7DD0298901985B
:1022200004F04CFA3CB9284601F0DBFC6FF00F00DB
:1022300004B0BDE8F09F4FF000092E4621E0D6F82B
:102240000480002716E018F807000D2803D018F8BE
:1022500007000A2801D1012000E000208146206803
:10226000202806DA18F807102268501C2060201D6C
:1022700081547F1C7089B84202DDB9F1000FE2D0B1
:102280003668002EDBD1B9F1000F44D02068801EE3
:10229000211D085C0D2804D12068401E085C0A2816
:1022A00025D02068401E211D085C0D2804D0206820
:1022B000401E085C0A2807D12068401C202803DC47
:1022C0002068401C206009E02068801C202803DC76
:1022D0002068801C206001E0202020600D22206802
:1022E000801E211D0A540A222068401E0A54012320
:1022F0001D2212A1019804F0C4FD208882B201239E
:10230000211D019804F0BDFD221D0CA113A0FEF7B4
:1023100047F80020206000E003E0284601F061FC5F
:1023200009E0BBF1000F06D1204600F0FFFF019845
:1023300002F080F97CE700207AE700000A0D476987
:102340006761446576696365A1BE3233A1BF504FB2
:1023500052542048656C6C6F200000000A0D4769DC
:1023600067614465766963650A0D54656C6E6574D2
:10237000202573202573000070B505460C462246C3
:102380000321284600F0C6F870BD00002DE9FF5F6C
:1023900005468A465E48D0F808B09BF80000000762
:1023A000860E142E00DAAAE06889042800D2A6E07E
:1023B0006868047814B1082C7ED100E09AE0DFF858
:1023C000509109F114095248007D00F0F000E02816
:1023D00000D198E04E4A1168506900F007F900B149
:1023E00091E02889082800D289E0284600F0D5F835
:1023F00020B1284601F0F5FBBDE8FF9F06F10E0075
:1024000001B2284601F030FC88B32889304481B2FB
:102410000022022001F002FA074607B973E0798929
:1024200006F10800814203D2384601F0DAFB6AE087
:10243000324659467868FDF7A9FE704201B2384627
:1024400001F012FC28B100BF00BF384601F0C9FB03
:1024500059E02946384601F01BFB18B1384601F017
:10246000C0FB50E0284601F0BCFB3D460BE0FFE717
:1024700006F10E00404201B2284601F0F5FB10B112
:1024800000BF00BF3FE0D5F8048031B2284601F01C
:10249000EBFBE0B96F68D9F80000F8601C480069F0
:1024A0003861002088F80000A8F80200FF20387288
:1024B00000207881012100E00AE0FF2302468DE838
:1024C00003044946284600F095FA039000BF11E046
:1024D000032C0ED00B2C0CD00C2C0AD0042C08D0C2
:1024E000052C06D00D2C04D00E2C02D0112C00D0BF
:1024F00000BF00BF00BF284601F073FB7CE7284601
:1025000001F06FFB78E7284601F06BFB00BF73E733
:10251000043E00202DE9FF470746884691460022E9
:102520002421012001F07AF905460DB9BDE8FF87A5
:1025300000BF00BFD7F804A06C6884F8008084F85E
:1025400001900020A080E08079686A6802F10800AC
:102550001C22FDF71BFEDAF80C00039003A800F024
:1025600099FB06465EB10020608001200021FF2318
:1025700003AACDE901060091284600F03BFA28465F
:1025800001F02FFB00BFD1E770B505460C4622468F
:102590000B212846FFF7BEFF70BDF0B506460024AC
:1025A0000027354617E06989686800F065FE044435
:1025B000A0B200EB1444688900EBD0714910A0EB85
:1025C000410139B1C7F10100C7B2E0B2C4F307213C
:1025D00041EA00242D68002DE5D127B1E0B2C4F313
:1025E000072141EA0024E04380B2F0BD18B502465D
:1025F0000092D04300B10AB9012018BD91F82F0014
:1026000000F0020008B90020F7E74868904201D1C5
:102610000020F2E700988B681840D1E9013423408C
:10262000984208D1886822EA00008C68E343984207
:1026300001D10120E1E70020DFE700002DE9F74F9D
:102640008CB004460F464FF00008F98CA1F114003D
:10265000C11700EB5171C1F3CF0108911420049010
:1026600060680990DDF8249000BF99F8000000F040
:102670000F001421B1EB800F04D06FF005000FB0F4
:10268000BDE8F08F00BFB9F8060000F09CFD83465E
:10269000CBF30C00069000BF0BF4005010B16FF0AC
:1026A0000500ECE700BF208914381FFA80FA9AE091
:1026B0000898BAEBC00F01DA504601E00898C00054
:1026C00080B2079000221421022001F0A7F80546ED
:1026D00005B98EE000BF00BF142268680999FDF7B4
:1026E00055FDD5F8049007980A9045E06189049853
:1026F000081A80B2039003990A98884201DA0A986E
:1027000000E003988046B8F1000F03D10020049048
:10271000246831E000F006FB06461EB9284601F0A9
:1027200060FA66E061680498084433460222414634
:10273000CDE90008042001F044F90B900B9830B962
:10274000304600F0F4FA284601F04BFA51E02046FA
:1027500001F023FB74612848306128460B9901F091
:1027600067F90A98A0EB080080B20A900A9810B1A5
:1027700000200490246800BF0A980028B6D104986D
:10278000404480B20490F88C1438504501DB01209D
:1027900000E0002005900698C0F30C0B059808B9DE
:1027A0004BF4005B584600F00EFDA9F806000799AF
:1027B000143188B200F007FDA9F802000020A9F842
:1027C0000A007B69294638460E9A9847284601F048
:1027D00008FA0798AAEB00001FFA80FA08990698F1
:1027E000084480B20690BAF1000F7FF461AF002078
:1027F00045E74FF0FF3042E7553000082DE9F05F24
:1028000006460F464FF0010A756828780421B1EB9F
:10281000201F05D0304601F0E4F90020BDE8F09F0C
:10282000287800F00F084FF6FF7000EA88086888E3
:1028300000F0C9FC81463189494503DD49463046EF
:1028400001F06BFA7089404505DB3089484502DBB1
:10285000B8F1140F04DA304601F0C3F90020DDE7C7
:10286000286962494861E86808610846007D00F00F
:10287000F000E0280AD197F82F0000F0010018B10D
:10288000786808B13C462EE000242CE04FF0010BA4
:102890003C4600BF94F82F0000F0010068B160686A
:1028A00058B1524840696168884205D04F4948692B
:1028B0002146FFF79BFE00B113E0BBF1000F0AD0E9
:1028C0004A48007D7F2801D100240AE04FF0000B28
:1028D0004748046800E02468BC4200D12468002C0A
:1028E000D8D100BF00BF64B9687A112809D105EBBF
:1028F00008004188B1F5884F02D13C464FF0000AEC
:1029000000BFBAF1000F13D03848006980B13749D1
:1029100008693946FFF76AFE28B93448007C00F0A0
:10292000F000E02804D1304601F05BF9002075E7A3
:1029300024B9304601F055F900206FE7E8884FF6DA
:102940003F71084038B1304600F0D4F806460EB961
:10295000002063E775682548046047608560287833
:102960000007800E21498881C8F1000001B230467D
:1029700001F07AF9687A01280DD0062806D01128CE
:102980000ED13946304604F0AFFD23E039463046DB
:1029900002F0C6F81EE039463046FFF7F7FC19E0B2
:1029A000124948692146FFF721FE78B90F48007D9A
:1029B00000F0F000E02809D00FFA88F1304601F06D
:1029C0005CF9756002213046FFF7D6FC304601F015
:1029D00008F900BF00BF0020044908604860886013
:1029E00088810861486100BF18E70000043E0020AC
:1029F0005C0000202DE9FE4F07460C461546984620
:102A0000DDE90C9A0E9EA34625B10CB1206808B9E9
:102A100006F1040B43462A4659463846CDE9009A4A
:102A2000029600F003F8BDE8FE8F00002DE9F84F94
:102A300005460F4690469A46DDF828B00C9E00BF2A
:102A400000BFB8F1000F3AD04FF014091421284606
:102A500001F00AF918B16FF00100BDE8F88F6C6859
:102A600000BF00BF84F808A00B986072D8F800007F
:102A7000206148464FEAE97109EB9171C1F3870182
:102A800041F04001217084F801B0288900F09BFBDF
:102A900060800020E0801548008800F094FBA08052
:102AA00012480088401C114908801FB9104800686E
:102AB000E06001E03868E0600020608103E06C685D
:102AC00020690090E846F08C48B12889F18C884252
:102AD00005DD424631462846FFF7B0FDBDE74246D8
:102AE0002946304673699847B7E70000DE000020AA
:102AF000907A00082DE9F84F8146D9F804502878DB
:102B000000F00F001421B1EB800F00D0B9E0E8888D
:102B100000F059FBC0F30C004FF6FF7101EAC00B47
:102B2000688800F050FB297801F00F01A0EB8100CC
:102B300080B20090484600F0A2FF06465348018844
:102B400088190A280ADD3146284600F03FFA20B1EC
:102B50004E48008830440A2800DD92E04C48046862
:102B600011E06069E968884209D1A0692969884251
:102B700005D1A089A988884201D1012000E0002068
:102B800000B102E02468002CEBD100BF34B931461B
:102B9000284600F0A1F9044694B972E0E88800F0F4
:102BA00012FBC0F30C0058B9E08900F00CFBC0F335
:102BB0000C0028B11422294604F10800FDF7E6FABA
:102BC00032480088304431490880A87900F020005C
:102BD00030B9A07F40F00100A07700985844A0834E
:102BE0004946204600F0ACF8002848D0A08B1430AD
:102BF000A08360684068D0F800806068456814224F
:102C000004F108012846FDF7C1FAA08B00F0DBFAB9
:102C100068800020E8806881D4F804900CE0D8F83F
:102C200004A06FF01301404601F01EF841464846EB
:102C300000F0FEFEDAF80080B8F1000FEFD1144882
:102C40000068844201D100270AE01148076804E0C7
:102C50003868A04200D102E03F68002FF8D100BFE1
:102C60003946204600F022F9484600F008FF07499F
:102C70000988081A054908804846BDE8F88F0020F1
:102C8000FBE7484600F0ADFF0020F6E7E400002037
:102C9000E000002010B502462048016821E091F8CC
:102CA0002F0000F00100D8B191F82F00C0F3800090
:102CB000B0B14868A0B110688B681840D1E9013400
:102CC0002340984201D1084610BD91F82F0000F032
:102CD000020028B91068CB68984201D10846F3E792
:102CE00009680029DBD10E48006888B10C480068EB
:102CF00090F82F0000F0010050B10948006890F8EA
:102D00002F00C0F3800018B105480068406808B97A
:102D10000020D9E702480068D6E700005C000020E8
:102D20006000002010B5052000F09CFC10BD10B51F
:102D3000044600BF00BF2146052000F059FC10BD2D
:102D40002DE9FC5F80460E4600254FF0010BD6F8BA
:102D500004A0BAF8020000F036FA9AF8001001F068
:102D60000F01A0EB810080B20090BAF8060000F0DD
:102D70002AFAC0F30C004FF6FF7101EAC00001907F
:102D800000BF00BF7468002020600198A080DDE9CA
:102D900000100844E080D8F804902AE0D9F80470C4
:102DA000A088B988884210DAC4F8009055B1A0888C
:102DB000E988884203DBE088B988884200DD66E064
:102DC0002E6001E0C8F8046016E0A088B988884247
:102DD00000D15CE0A088F988884200DA57E02DB184
:102DE000E888B988884201D04FF0000BD7F80090EE
:102DF0003D46B9F1000FD1D100BFB9F1000F0ED19E
:102E00004DB100BF00BF2E60E888A188884206D07F
:102E10004FF0000B03E000BF00BFC8F8046098F853
:102E20001E0000F0010078B3BBF1000F29D0D8F8E4
:102E3000040020B1D8F804004068808810B14FF039
:102E4000000B1EE02546D4F800900BE0D9F80440B2
:102E5000E888A188884202D04FF0000B05E02546A3
:102E6000D4F80090B9F1000FF0D100BFBBF1000F12
:102E700007D000BF00BF00BF00BF00BF00BF00BF42
:102E800000BF5846BDE8FC9FFFE70020FAE7304648
:102E900000F0F5FD04490988081A03490880304606
:102EA00000F09FFE0020EDE7E400002070B504462E
:102EB0000D4608480068A04203D106492068086012
:102EC00003E000BF00BF206828602146042000F016
:102ED0008FFB70BDE000002070B505460E46042053
:102EE00000F0C0FB044664B93146284600F06EF895
:102EF000B04203DB042000F0B5FB04460CB900200F
:102F000070BD20212046FDF75AF90320E0770648DE
:102F100000682060044804601422294604F1080077
:102F2000FDF734F92046EBE7E00000202DE9F047FB
:102F300004468946002600BF00BFB9F1000F01D04A
:102F400000BF00BF6068D0F80480B8F80400C0B9C2
:102F50006568D8F800006060142204F10801686810
:102F6000FDF714F901212846FFF70EFB284600F073
:102F700086FD074600BF00BFF01986B2284600F064
:102F800030FE656810E0D5F80480AA46D8F80050F5
:102F9000504600F074FD074600BF00BFF01986B22E
:102FA000504600F01EFE00BF002DECD149462046E1
:102FB000FFF77CFF00BF00BF03480088801B024969
:102FC00008803046BDE8F087E40000202DE9F84F86
:102FD00005468946002700BF0026B2460020009023
:102FE00083461B48046821E06069E968884207D18C
:102FF000A0692969884203D1A089A988884201D0A3
:10300000012000E0002068B10BF1010B1EB926463B
:10301000CDF800A006E0E07FF17F884202DC264682
:10302000CDF800A0206800B1A2462468002CDBD1B6
:103030002EB130460099FFF779FF804647444F454F
:1030400002DABBF1010FC7DC3846BDE8F88F00009B
:10305000E000002070B505462C4600BF00BF00BF51
:1030600000BF606910B1606900F0BBFD2046FFF74A
:103070005EFE70BD70B50446062084F8280002206C
:1030800084F829000A212A2001550F212B200155FF
:103090000E212C2001550D212D20015506212E2019
:1030A000015504F129010020FEF702F840F2DC503E
:1030B000E0840E2084F82F00C004FDF799FC4FF443
:1030C0006020FDF795FC002605E00B4901EB06109A
:1030D000FDF788FC761C052EF7D3002507E007498D
:1030E00001EB05104FF44001FEF7D0F96D1C052DE2
:1030F000F5D3FDF7E1FC70BDA0010020F001002038
:103100002DE9F0478146002600250221124800687B
:10311000FDF742FC87B205210F480068FDF73CFC33
:10312000804603223946042000F078FB054665B14D
:103130002C4608E0628908EB06016068FDF726F876
:10314000608906442468002CF4D100210846FDF76C
:10315000B9FC2846BDE8F0871C0000202DE9F041AD
:1031600080460F46002500BF0F480068006800F049
:1031700000400028F8D101210B480068FDF70CFC45
:1031800006463C4607E0628970196168FCF7FEFF5D
:10319000608905442468002CF5D129460020FDF7FC
:1031A000FFFC0020BDE8F081180000200146080661
:1031B00001F47F4240EA022001F47F0240EA12203B
:1031C00040EA1160704701460806000C40EA1120F1
:1031D0007047000001B50C4900980968401AFA28A8
:1031E00004D309490098086003F008FE07490098D5
:1031F0000968401AB0F57A7F04D304490098086042
:10320000FEF7C8FC08BD00000C00002010000020E4
:1032100010B50248FEF734FE10BD00006C0100201E
:1032200000B587B000F0AAF800F0F6F90D48069056
:103230006FF07F4005900C4804900C480C49002228
:1032400004ABCDE90021029005AA06A9094800F0C7
:103250001BFA084800F088FA064800F0BDFA07B0EB
:1032600000BD0000C0A83998C0A83901311D000870
:10327000511E00086C010020F8B505460A462B4691
:1032800000200090002103F0010636B1002A04DD81
:1032900013F8010B8DF80100521E1C4603E034F8B0
:1032A000027B3944921E012AF9DC002A02DD2078D3
:1032B0008DF80000BDF80000014488B200EB114118
:1032C00088B200EB114126B1C8B2C1F3072747EA23
:1032D000002188B2F8BD00000948FEF7F9FDFEF7AD
:1032E00097F8FFF79DFFFEF779FF08E0FEF732F849
:1032F00008B1FFF78DFF03480068FFF76BFFF5E7A4
:10330000003801400400002070B504460D4604FB5F
:1033100005F188B200F060F8064626B104FB05F11D
:103320003046FCF74CFF304670BD000070B50546D6
:1033300005B970BD00BF00BF00BF00BF0C480068EA
:10334000854203D30B480068854200D3F1E7A5F11D
:10335000080400BF00BF00202071074800688442B5
:1033600001D205480460204600F020FD00BFE0E7E0
:103370002C000020300000203400002000BF00BFDF
:10338000114921F00301114A1160114608684FF4F8
:10339000A04101800021418001711146096801F5B9
:1033A000A0410B4A11600121126811714FF4A04134
:1033B000074A12681180064A126851800349096859
:1033C000044A1160704700001F3E00202C000020BE
:1033D0003000002034000020F0B502460AB9002079
:1033E000F0BDD01C20F0030082B20C2A00D20C22C7
:1033F000B2F5A04F01D90020F2E72F4800882F4EE8
:103400003688801B83B250E02C480068C1180879C8
:10341000002847D10E8803F10800301A904241D3AA
:103420000E8803F10800361A02F11400864218D300
:1034300003F10800104485B22048006844190020B8
:1034400020710888208063800D8001200871208809
:10345000B0F5A04F07D02088184E3668304445801C
:1034600001E00120087114480068814211D1124E18
:10347000306803E00688114F3F68F01906791EB1E5
:103480000F4E3668B042F5D10B4E306000BF00BF22
:1034900000BF00BF00BF00BF00BF00BF00BF01F101
:1034A00008009DE705480068C35AC2F5A04098424D
:1034B000AAD8002094E70000340000202C0000204F
:1034C000300000202DE9F04106460A46D01C20F0CD
:1034D000030082B20C2A00D20C22B2F5A04F02D90E
:1034E0000020BDE8F08100BF00BF3E480068864272
:1034F00003D33D480068864201D33046F1E7A6F188
:10350000080438480088201A85B22088401B0838F3
:1035100087B200BF00BFBA4201DD0020E1E7BA4236
:1035200001D13046DDE72088DFF8B8C0DCF800C004
:1035300000EB0C01087980BB088805F1080C944465
:103540001FFA8CF3DFF8A4C0DCF800C08C4508D16A
:10355000DFF890C0DCF800C09C44DFF89080C8F829
:1035600000C0DFF880C0DCF800C00CEB03014FF0B6
:10357000000C81F804C008804D802380B1F800C0A1
:10358000BCF5A04F08D0B1F800C0DFF85880D8F8DB
:103590000080C444ACF8023022E0FFE702F11400DE
:1035A000B8421DD805F10800104483B20D480068E8
:1035B000C1180E480068814201D20C480160002009
:1035C0000871208808804D8023800888B0F5A04FBE
:1035D00006D00888DFF80CC0DCF800C060444380E7
:1035E00030467EE72C000020300000203400002010
:1035F00070B504460D4600BF092C00DB70BD00BF4E
:1036000005B9FBE7034951F824002946FDF761F9A4
:1036100000BFF3E71C7A000810B5002406E0054956
:1036200051F8240000F008F8601C84B2092CF6D38D
:1036300010BD00001C7A000810B5002384682360C8
:103640004368DB1C23F00301002207E083681B684A
:103650000B608368196003881944521C43889342A5
:10366000F4DC10BD70B5044600BF092C01DB00205E
:1036700070BD00BF034951F82400FDF734F9054639
:103680002846F5E71C7A00082DE9F04704460D4668
:1036900016461F46DDE909A9DDF8208000BF00BFFE
:1036A00000206060A060E06084F82F0020620320AA
:1036B00084F82400C4F81C800E48007884F8320096
:1036C0000C480078401C0B490870C4F810903B4629
:1036D00032462946204600F023F82046D04710B154
:1036E0000020BDE8F08704480068206002480460BC
:1036F0002046F6E7640000205C00002070B5044618
:103700000D4605F0010050B1606840B194F82F00FB
:1037100000F0080018B1211D2046FEF719FA70BD0F
:103720002DE9F04107460C4615461E460CB12068AF
:1037300060B92146384600F023F82946384600F0A3
:1037400045F83146384600F015F80BE02946384672
:1037500000F03CF83146384600F00CF82146384677
:1037600000F00EF8BDE8F0810149086070470000E4
:103770006000002009B9002200E00A68C2607047BA
:1037800038B505460C4614B12068009002E00E489A
:103790000068009000986968884201D1012000E02B
:1037A000002080B96946281D01F00AFE6946281DDF
:1037B00003F05CFF0CB9002000E020686860012184
:1037C0002846FFF79BFF38BD907A000809B9002210
:1037D00000E00A688260704710B5044694F82F0034
:1037E00000F0010068B914F82F0F40F001002070BC
:1037F00014F82F0900F0040018B103212046FFF748
:103800007DFF10BD034A0A400243034B1A60BFF319
:103810004F8F704780FFFF1F08ED00E02DE9F84F44
:1038200083460F469046BBF1050F0ED2DFE80BF042
:10383000030507090B0036260CE022260AE00E26B7
:1038400008E0002606E0002604E000BF00BF0020DC
:10385000BDE8F88F00BFB8F1000F6BD0B8F1010FD1
:103860007AD0B8F1020F78D0B8F1030F76D10820E2
:10387000FFF7F8FE04460CB90020E9E784F80C8055
:103880000020206006F110002044C01C20F003003E
:10389000606000BF00BF2781F01C20F0030040F2F1
:1038A000DC51081AB84201D9384605E0F01C20F076
:1038B000030040F2DC51081A608100BF00BF00BF66
:1038C00000BF0120E081A2466089A7EB00092DE03E
:1038D0000820FFF7C7FE054625B9204600F081F90C
:1038E0000020B5E785F80C80002068732860CAF8CE
:1038F000005000BF00BFA5F808901FFA89F040F201
:10390000DC51884202D21FFA89F001E040F2DC501B
:10391000688105F11000686000BF00BF00BF00BFF4
:103920000120E8816889A9EB0009AA46B9F1000FD6
:10393000CEDC3FE006F1130020F00301F81C20F07C
:103940000300084480B20090F81C20F003010098A6
:10395000814204D900207BE718E018E026E00098B7
:10396000FFF73AFD04460CB9002071E704F110009E
:103970003044C01C20F00300606027816781002074
:10398000206084F80C8000BF00BF13E000BF072058
:10399000FFF768FE04460CB9002059E7002060607C
:1039A00027816781206084F80C8003E000BF00BF9E
:1039B00000204DE700BF0120E08100206073204619
:1039C00046E7F0B504460D46DDE90567052C0ED245
:1039D000DFE804F0030507090B0036210BE0222184
:1039E00009E00E2107E0002105E0002103E000BF0F
:1039F00000BF0020F0BD00BFC81C20F00300284419
:103A0000B84201D90020F5E7002018602EB1C81C8B
:103A100020F003003044586001E00020586002208C
:103A200058731D815D811A730120D8811846E1E722
:103A300010B5024600BF02B101B910BD00BF10466B
:103A400004E003890C892344038100680368002B88
:103A5000F7D100BF00BF00BF00BF03890C8923441A
:103A60000381016000BFE8E730B505460C462146FA
:103A70002846FFF7DDFF204600F08FF930BD0146F4
:103A8000002002E0421C90B209680029FAD1704778
:103A90002DE9F04105460C460026002700BF25B160
:103AA0001CB128892189884203DA6FF00F00BDE834
:103AB000F08100BF00BF6889801B6189C91B8842F3
:103AC00004DB6089C01B1FFA80F803E06889801B53
:103AD0001FFA80F86268D1196A6890194246FCF7AB
:103AE00055FB06EB080086B207EB080087B200BF63
:103AF00000BF00BF00BF6089B84201DC0027246816
:103B00006889B04208D100262D6800BF1DB914B1E4
:103B10006FF00F00CBE700BF54B160892189884264
:103B200006D100BF206810B16FF00500BFE700BFED
:103B300055B168892989884206D100BF286810B12B
:103B40006FF00500B3E700BF002CB4D10020AEE752
:103B50002DE9F05F8046894616461D464FF0000B62
:103B600000BFB8F1000F02D10020BDE8F09F00BFF8
:103B700000BFB9F1000F01D10020F6E700BF4FF000
:103B8000000AB8F1000F02D0B9F1000F01D10020F6
:103B9000EBE7444620E035B16089A84203DC608948
:103BA000281A85B217E06089401B87B2B74200DD52
:103BB00037466268511909EB0A003A46FCF7E6FA03
:103BC0000BEB07001FFA80FB0AEB07001FFA80FAD5
:103BD000F01B86B2002524680EB1002CDBD15846BC
:103BE000C3E72DE9F047044624B900BF00BF002019
:103BF000BDE8F08700BF00BF002631E000BF00BF76
:103C0000E089401E1FFA80F8A4F80E80B8F1000F7A
:103C100024D12768257B607B00F0020038B1A146E3
:103C200000BF00BF2046D9F81010884712E0032DCE
:103C300004D121460820FFF7DBFC0BE0012D01D069
:103C4000022D04D121460720FFF7D2FC02E02046D6
:103C5000FFF76CFB701CC6B23C4600E0002400BFBE
:103C6000002CCBD13046C3E770B504460D46002288
:103C70002946204600F00AF870BD70B504460D468E
:103C800001222946204600F001F870BDF0B5034638
:103C9000154600BF00BF01B10BB90020F0BD0029DF
:103CA00008DA484284B200BF5889A04201DA0120F4
:103CB000F4E700E08CB21A7B5E680AB1032A0AD1ED
:103CC0005868401A586003F110005F6887421CD2A0
:103CD0005E600120E2E7022A01D0012A11D1002909
:103CE00006DA5889A04203DB5868401A58600CE095
:103CF000002904DD1DB15868401A586005E0012014
:103D0000CCE700BF00BF0120C8E7588908445881AC
:103D10001889084418810020C0E72DE9F0410646C3
:103D20000F4600BF00BF00BF00BF3089B84201DCB2
:103D3000BDE8F0813089A7EB00083D4634460AE033
:103D40006089281A85B200BF00BF208940442081C5
:103D5000246800BF00BF6089A842F1DB207B80B9E6
:103D60006089A8420DD0607B00F0020048B9A088AD
:103D7000001B284481B22046FFF7A4FB044600BF85
:103D800000BF658160892081206810B12068FFF73D
:103D900028FF0020206000BFCAE730B100BFC18902
:103DA000491CC18100BF00BF00BF704730B500BFD4
:103DB00000BF00BF00BF00BF00BF00BF00BF03883F
:103DC000194C24681919884215D00B799BB9174BE7
:103DD0001B6899420FD0164B1B688B4201D1144BC4
:103DE00018600B880380104B1B88C31A0C880E4D7B
:103DF0002D682C44638043880B4C24681A19824236
:103E000011D013797BB90A4B1B68834201D1084B4F
:103E10001A6003881380044B1B88D31A0488024D50
:103E20002D682C44638030BD2C0000203000002021
:103E300034000020044A516821F0706141EA000218
:103E4000014B5A6070470000001002402DE9F14F0D
:103E50008DB000200B9051A090E8004CC068CDE9D7
:103E600005BECDF810A007900FF2341ADAE9000A67
:103E7000CDE9020A0FF2281ADAE9000ACDE9000AB0
:103E80004A484068C0F381000C900C9820B101288A
:103E900004D002284DD103E045494CE045494AE0B1
:103EA0004248406800F48039B9F5803F26D1414B43
:103EB0003E48C06A00F480300A900A98B0F5803F0E
:103EC00012D13A48C06AC0F30310401C089037482A
:103ED000C06AC0F30320871C112F00D11427089853
:103EE000B3FBF0F000FB07F33048C06A00F00F00AE
:103EF000401C09900998B3FBF0F300E02E4B2B48CF
:103F00004068C0F383422948406800F0005008B17F
:103F100042F010020F2A01D2921C00E0521C03FB57
:103F200002F10F2A04D103EB4300400000EB5301E0
:103F300001E01F4900BF00BF1C484068C0F30315E3
:103F400004A8465D21FA06F418484068C0F302252B
:103F500002A8465D24FA06FC14484068C0F3C22556
:103F60001DF8056024FA06F80D9830B1012806D036
:103F7000022806D003280AD106E00B9108E00B9432
:103F800006E0CDF82CC003E0CDF82C8000E000BFA7
:103F900000BF0B980EB0BDE8F08F000000000000DD
:103FA0000000000001020304060708090010024097
:103FB00000127A0040787D0100093D000146074A61
:103FC00002EB9110006801F01F0301229A4010409B
:103FD00008B1012070470020FCE7000000100240FB
:103FE000064A02EB9011096800F01F0301229A4073
:103FF0001143024B03EB9012116070470010024016
:10400000F0B506460024002700251A2E66D005DCF0
:104010008EB3102E0BD0182E70D14FE01C2E6FD007
:10402000B6F5006F14D0B6F5106F79D134E004E026
:104030001120FFF7C3FF0546641C1DB94FF6FF7042
:104040008442F5D11120FFF7B9FF00B1012768E0E4
:1040500005E040F60100FFF7B1FF0546641C1DB9FD
:104060006FF07C408442F4D140F60100FFF7A6FFD8
:1040700000B1012755E0FFE704E00120FFF79EFFB4
:104080000546641C15B9B4F5A06FF6D10120FFF701
:1040900095FF00B1012744E005E040F60110FFF76D
:1040A0008DFF0546641C15B91F488442F5D140F6C2
:1040B0000110FFF783FF00B1012732E004E019206F
:1040C000FFF77CFF0546641C15B917488442F6D1FA
:1040D0001920FFF773FF00B1012722E004E01B2045
:1040E000FFF76CFF0546641C15B90F488442F6D1F2
:1040F0001B20FFF763FF00B1012712E010E0FFE78C
:1041000004E01D20FFF75AFF0546641C15B9064858
:104110008442F6D11D20FFF751FF00B1012700E0D6
:1041200000BF00BF3846F0BDFFFF0F00064A02EB9C
:104130009011096800F01F0301229A401143024BBD
:1041400003EB90121160704700100240064A02EB28
:104150009011096800F01F0301229A409143024B1D
:1041600003EB90121160704700100240064A02EB08
:104170009011096800F01F0301229A401143024B7D
:1041800003EB901211607047001002400549C96AA4
:1041900021F47041034AD1621146C96A0143D162D8
:1041A000704700000010024001480068704700009E
:1041B000040000202DE9F047064689469246062075
:1041C000FFF750FA04461CB900BF00BFBDE8F087F6
:1041D000FFF7EAFF07462B48006820B94FF00008B8
:1041E0002948076003E028480068A7EB0008002082
:1041F0002060C4F80890C4F80CA006EB08006060CA
:104200002048006810B91F480460DFE71D480068B7
:104210004068B0420CD91B4800684068801B1949AF
:10422000096848601748006820601648046026E066
:104230001448056820E060686968401A6060286872
:1042400020B1286840686168884214D9286830B174
:10425000286840686168401A2968486007E060681B
:10426000B04204D90748006840683044606028685C
:1042700020602C6002E02D68002DDCD100BF00BF63
:10428000A4E70000B0000020B400002000200021BE
:10429000334A126842F48032314B1A6000BF401C2E
:1042A0002F4A126802F4003119B94FF6FF7290429A
:1042B000F5D12B4A126802F400320AB900BFFEE7BA
:1042C000274A5268264B5A601A4652685A601A4664
:1042D000526842F480625A601A465268214B1A4072
:1042E0001F4B5A601A4652681F4B1A431C4B5A60A8
:1042F0001A46D26A1D4B1A40194BDA621A46D26A24
:104300001B4B1A43164BDA621A46126842F080625F
:104310001A6000BF124A126802F00062002AF9D047
:104320000F4A126842F080720D4B1A6000BF0C4AAF
:10433000126802F00072002AF9D0094A526822F08D
:104340000302074B5A601A46526842F002025A6052
:1043500000BF034A526802F00C02082AF9D17047E4
:1043600000100240FFFFC3DF0000292000F0FEFF25
:104370004906010010B5FFF789FF10BD042808D1D8
:104380004FF0E021096941F004014FF0E022116192
:1043900007E04FF0E021096921F004014FF0E0222D
:1043A000116170472DE9FE4F04460E4600BF00BF65
:1043B000207D0A2808D12146314801F0FFFA214624
:1043C0000120FFF715F959E04FF0000AD346E76CDA
:1043D000D4F82480D4F88850D4F81090207DE8B91F
:1043E000E08A38B300BF27480068A04205D12548BD
:1043F0000068C068234908600DE02249086806E0AB
:10440000C168A14202D1E168C16002E0C068002831
:10441000F6D100BF00BF0020E0600BE0B246B4F868
:1044200016B000BF2146184801F0C8FA012017490C
:10443000087000BFE06E10B1E06E02F055FAA06E99
:1044400010B1A06E02F050FABAF1000F08D0208B24
:10445000231D22464146CDE900B0384602F0F3F96B
:10446000207D029021460120FFF7C2F800BF1DB158
:104470006FF00C014846A84700BF00BFBDE8FE8FA3
:104480007C000020700000207800002080000020C8
:1044900010B5044601212046FFF784FF10BD28B166
:1044A000027D012A02D10246916100BF704770B5BA
:1044B00005460C4616462046FFF7EAFF6FF00C0053
:1044C00070BD000070B505460120FFF7CBF804462B
:1044D0000CBB00F02DFE0120FFF7C4F80446CCB958
:1044E000092000F0FFFD0120FFF7BCF8044684B965
:1044F000082000F0F7FD0120FFF7B4F804463CB9AE
:10450000284600F0C3FD0120FFF7ACF8044600BFC9
:1045100000BF00BF00BF34B394212046FBF74FFE1D
:104520001034657140F66830A4F850006083208331
:10453000FF2004F8060C4FF40670608406202086E5
:10454000E085C01F20840120208708480068206182
:1045500007480078607340F6683060870548E06679
:104560000548E067103C204670BD00006C0000204C
:10457000820000208F66000800DD6D0000B101613F
:10458000704700002DE9F04705460C4617464FF0EE
:10459000040904B9244C05B11CB96FF00500BDE84D
:1045A000F08700BF287D10B16FF00500F7E700BF6E
:1045B00037B900F049FF07460FBB6FF00100EEE787
:1045C0004FF0000819E0194850F82800066810E07C
:1045D000F08AB8420CD146B1306830B12CB12068B5
:1045E00018B130682168884202D16FF00700D6E721
:1045F000F668002EECD108F10108C845E3DB34B1C0
:10460000206820B10CB9002000E020682860EF820B
:1046100000BF07480068E8600548056002F080FBBD
:1046200000BF0020BBE70000907A0008807A0008F5
:104630007000002010B50446207D012803D0A07E24
:1046400040F01000A0760121204600F001F810BDD6
:104650007CB504460D46002D57D0207D042802D09D
:10466000207D072851D1206F20B9208D40F6683178
:1046700088424AD000BF00BF208BE18ACDE90010FC
:10468000231D2246616AE06C02F0DDF8204601F04D
:1046900075F900BF00BF42480068A04205D14048FC
:1046A0000068C0683E4908600DE03D49086806E0C2
:1046B000C168A14202D1E168C16002E0C06800287F
:1046C000F6D100BF00BF0020E06000BF01203549E7
:1046D000087000BF207D04280AD10A20207500BF81
:1046E00031480068E0603048046002F019FB0AE0DD
:1046F0002E480068A04202D102F092FB03E021465E
:104700000120FEF775FF00207CBD207D20B101282F
:1047100025D002283CD12EE0E08AD8B100BF244841
:104720000068A04205D122480068C068204908609E
:104730000DE01F49086806E0C168A14202D1E168A6
:10474000C16002E0C0680028F6D100BF00BF0020B1
:10475000E06000BF21460120FEF74AFF1CE0204632
:1047600000F004FD2146134801F028F921460220FB
:10477000FEF73EFF10E000BF2146094801F01EF998
:1047800001200849087000BF2146FEF731FF03E011
:10479000204600F011F8B7E700BF0020B4E70000A2
:1047A00078000020800000207C000020AC00002069
:1047B000700000207400002070B5054600BF00BFE7
:1047C000287D032804D004280AD0072818D10FE038
:1047D000284602F0D0F804460CB90520287511E0EF
:1047E000284602F0C8F804460CB90520287509E0EF
:1047F000284602F0C0F804460CB90920287501E0EB
:10480000002070BD00BF1CB9284600F061FE05E025
:10481000601C18B9A87E40F00800A8762046F0E792
:104820002DE9F05F80460E4691469A460A9F07F0B2
:10483000010008B1042000E0002007F0020109B1E6
:10484000002100E00021084407F0080109B100211F
:1048500000E0002145180320FEF704FF041E05D1E7
:104860003046FFF7BEF90020BDE8F09FA772002098
:104870002060666000BF00BF3089401B208114218A
:104880003046FFF7F1F920B1204602F020F8002071
:10489000EAE760684068E060B8F81600FEF793FC4D
:1048A000E1680880B8F81800FEF78DFCE1684880E0
:1048B0005046FEF77BFCE1684860AB46E91705EB24
:1048C00091718910491D4FF6FF7202EA013141EAE8
:1048D0000900FEF778FCE16888810020E1684882E1
:1048E0002046C1E72DE9F04105460E463046FEF769
:1048F000D1F98046B8F1000F02D12846BDE8F08119
:10490000B8F8260004B244B1A4F1280087B2BD4231
:1049100001DA284600E0384605462846EEE72DE94C
:10492000F84304460D460027B84600BF00BFB4F860
:1049300062000C2805DAB4F862004FF6FC71884278
:104940000AD905F0010038B9A07E40F08000A076B9
:104950004FF0FF30BDE8F88305F0020000B10127F9
:1049600007F0010008B1042000E0002007F0020178
:1049700009B1002100E00021084407F0080109B155
:10498000002100E0002100EB010800224146104612
:10499000FEF744FFB0F1000906D1A07E40F0800090
:1049A000A0764FF0FF30D5E700BF00BF00972A4642
:1049B00049462046A36DFFF733FF061E05D1A07EB2
:1049C00040F08000A076701EC4E700BF00BF00BFAB
:1049D00000BFA06E08B9A66607E0A06E00E0006800
:1049E00001680029FBD1066000BF0020A4F8640024
:1049F00005F0020010B905F0010010B1A06D401CD7
:104A0000A06505F0010018B1A07E40F02000A0765E
:104A10007068FFF734F834F8621F0844208034F8D7
:104A2000620908B100BF00BF002093E718B100BFC2
:104A300000BFC0F88810704770B520480078401C4F
:104A40001E49087000BF1E48046833E0607F1B49A0
:104A5000097888422DD0194800786077A07E00F050
:104A6000010060B100BFA07E40F00200A07600BF50
:104A7000204600F02DFDA07E20F00300A076A07E51
:104A800000F0080030B1A07E20F00800A07620469B
:104A9000FFF792FEE568206F48B1002009490870D1
:104AA000204601F0A3FA0748007800B1CBE72C4676
:104AB00000E0E468002CC9D170BD00008200002035
:104AC00078000020800000201148006828B11148BB
:104AD00000881149098888420BDA1048006800F103
:104AE00014010C4802880088401C0A4B1880885C1E
:104AF0007047084802780088401C064B188006481A
:104B00000078101AC1B202480068405CF0E700006B
:104B100090000020940000208E00002088000020DB
:104B20002DE9FC5F05468B46FB496868086068898B
:104B3000142800DA66E2F94A11685069FDF756FD5B
:104B400028B9F648007D00F0F000E02800D159E2D5
:104B5000F14909688889FEF736FB00134FEA80089F
:104B6000B8F1140F02DB2889404500DA4AE2A8F1C7
:104B70001400EB4908800020EA4908606889404534
:104B800009DBE7480088E8490880C8F100012846A9
:104B9000FFF76AF82EE000BF00BF6FF01301284650
:104BA000FFF762F86889E0490880DD4800880988D5
:104BB000401A1FFA80FADC480088404201B22846B9
:104BC000FFF752F828684089504500DA1AE2286851
:104BD0004068D4490860CAF1000109B22868FFF7AB
:104BE00043F82889A0EB0A00288100BF00BF00BF5E
:104BF00000BF00BFC84909680888FEF7E4FAC64943
:104C000009680880C44909684888FEF7DCFAC24987
:104C100009684880C04909684868FEF7C7FABE4974
:104C200009684860C1490860BB4909688868FEF79F
:104C3000BDFAB94909688860BD490860B649096884
:104C4000C889FEF7C0FAB4490968C881B249096841
:104C50008889FEF7B8FA00F03F00B6490870288945
:104C6000097801F0030109B1012100E000210844A5
:104C7000B14908800027B14804682AE000BF00BF9E
:104C800000BF00BF00BF00BF208BA349096809888F
:104C900088421CD1E08AA04909684988884216D117
:104CA0009E4960680969884211D19C492068496918
:104CB00088420CD100BF00BF37B1E068F8609F4860
:104CC0000068E0609D48046000BF00BF03E0274625
:104CD000E468002CD2D100BF002C4ED19848046863
:104CE00020E000BF00BF208B8B49096809888842FB
:104CF00017D1E08A884909684988884211D18749D3
:104D00006068096988420CD18449206849698842F1
:104D100007D1204602F020F82846FEF762FFBDE8E2
:104D2000FC9FE468002CDCD100278648066811E06F
:104D3000F08A794909684988884209D177493068F9
:104D40004969884200D107E00EB1306800B903E03C
:104D50003746F668002EEBD100BF76B137B1F06868
:104D6000F86078480068F06076480660304600F0E9
:104D700013FA2846FEF735FFD1E7002C7DD000203E
:104D800071490860288908810846456062480068C2
:104D9000C86000206D4908606D4908706D49088041
:104DA0006448007800F0080018B1687B40F001000A
:104DB0006873206F80B1204601F018F90D3028B1DA
:104DC000206F48B15C480088002805DD608D10B96F
:104DD000204601F095FDE4E05F480460204600F0C5
:104DE00029FE814609F10D00002817D058480078A7
:104DF00000F0080098B100BFD4F8880028B16FF027
:104E00000D01D4F888202069904700BF21464B4807
:104E100000F0D4FD21460120FEF7EAFBC0E04FF090
:104E200000094C480088002817DD4A48B0F800A067
:104E300000BFA06F30B152462146A36F206998474A
:104E4000814601E04FF0000900BF09F10D0000B9F3
:104E5000A7E000203F49088000BF3D48007800F0EF
:104E60001000C8B1A07E00F0100060B900BFD4F8F7
:104E7000880038B16FF00E0100E0A2E0D4F888207D
:104E80002069904700BF21462C4800F097FD21463D
:104E90000120FEF7ADFB84E02C48006868B300BF3A
:104EA00000BFA07E00F0100038B128480068FEF76F
:104EB00098FE2046FFF7ECFA73E000BFE06F48B1C0
:104EC00000232249D4F87CC020690A682146E047C3
:104ED000814607E000231D4821460268184601F07C
:104EE000D6FB814600BF09F10D0000B959E0B9F1C8
:104EF000000F02D01548006820671548007800F0C0
:104F0000200040B1206F48B3206F407B40F020006C
:104F1000216F48733EE03DE088000020043E002001
:104F20008C000020900000208E00002098000020BF
:104F30009C000020A4000020A20000207800002097
:104F40007C00002074000020BCD40020A8000020B9
:104F5000A5000020A0000020AC000020FFE7208D6D
:104F600040F66831884202D0208D401C208500BF69
:104F7000E06F40B100231A462146D4F87CC0206976
:104F8000E047814601E04FF0000900BF09F10D0044
:104F900000B906E000201E490860204600F098FA9B
:104FA00000BF00201A4908601A4908601A48406882
:104FB00028B319494868FEF714FE002016494860D6
:104FC0001DE0164909688889FEF7FDF800F0040025
:104FD00090B9124800680088104909684988CDE9ED
:104FE00000100F4800680F4A128881180E4B1A1DD6
:104FF0000E48006801F027FC2846FEF7F2FD00BFCE
:1050000000BF8CE62846FEF7ECFD00BF87E60000F7
:10501000AC000020A8000020BCD4002088000020A4
:1050200098000020A2000020143E00209C000020D8
:105030002DE9FE430446E16C481EFEF7B7F88046B2
:10504000434600221146204600F06CFB07461FB97C
:105050004FF0FF30BDE8FE83201DFDF71BFE054627
:1050600015B96FF003060BE006200021CDE901051C
:105070000091A37A221D21463846FDF7BBFC064667
:105080003846FEF7AEFD3046E4E700002DE9F0417A
:1050900006467F2E01DD7F2000E030468046002757
:1050A00000250E48046810E0607D40450CDC0C498A
:1050B000206A0968081AB84206D30949206A0968B3
:1050C0000F1A254694F81580E468002CECD115B130
:1050D0002846FFF7DDF9BDE8F081000078000020E8
:1050E0006C0000202DE9F041064600BF00BF0027FC
:1050F00000250D4804680EE0207DB0420AD10B491E
:10510000206A0968081AB84204D30849206A096865
:105110000F1A2546E468002CEED11DB10021284667
:10512000FFF740F9BDE8F081780000206C00002016
:1051300070B5002600250B4804680BE00A49206A78
:105140000968081AB04204D30749206A09680E1A90
:105150002546E468002CF1D115B12846FFF798F9EF
:1051600070BD00007C0000206C00002070B505467A
:1051700000BF00BF00BF00BF012407E0054951F890
:1051800024100868294601F0C9FA641C042CF5D3E0
:1051900070BD0000807A00082DE9FC4105464848B2
:1051A000007800F0040008B1BDE8FC8144480078B4
:1051B00000F0100098B14348006800884149096830
:1051C0004988CDE9001040480068404A128881189B
:1051D0003F4B1A1D3F48006801F035FB6EE0384830
:1051E000007800F00200002868D0687DFFF76AF9B7
:1051F000044674B900BFA86938B14FF0FF320021EE
:10520000AB6928699847804601E06FF00F0800BF3E
:10521000CAE72F481038406920602D4810380069CF
:105220006060E88AE08227480068008820830320C5
:10523000207525480068401C6062606AE062204674
:1052400000F036F906466665E6646664A6651E48A3
:105250000068401E2065286920616567287A00F093
:105260000C00207200BF00BF1B480068E0601A48B5
:10527000046001F055FD00BF01201849087000BF0F
:10528000204600F0EFFA0F480068C089323460858C
:10529000608DA08534F83209211DFFF723FB60865D
:1052A00012212046FFF73BFB074627B1002120468D
:1052B000FFF778F878E7204600F00AF900BF73E7B7
:1052C000A40000208800002098000020A2000020F8
:1052D000143E00209C000020780000208000002068
:1052E00070B504460D4600222946204600F002F81B
:1052F00070BD00002DE9F0410446884617460025A0
:1053000000BF207D10B16FF00E064EE000BF207D83
:10531000012803D125466FF0080646E00220FEF77B
:10532000A1F9054615B94FF0FF363EE02069286126
:10533000E08AE88201202875607D6875207A2872ED
:10534000A07AA872607A687220682860E08AD8B172
:1053500000BF18480068A04205D116480068C06820
:10536000144908600DE01349086806E0C168A142CD
:1053700002D1E168C16002E0C0680028F6D100BF38
:1053800000BF0020E06000BF21460120FEF730F999
:105390000948A86100BF09480068E860074805603F
:1053A00001F0BEFC00BF002600BF07B13E702846DA
:1053B000BDE8F08170000020AF44000874000020B8
:1053C0002DE9F04105460E46DDB12868C8B10E480A
:1053D0000168284600F01EF80C480168284600F0D5
:1053E00019F876B1306860B10948046807E0E768E9
:1053F00020682968884201D1306820603C46002C32
:10540000F5D1BDE8F0810000780000207000002098
:10541000740000202DE9F04105460E4634460AE0AE
:1054200020682968884205D1E7682046FFF730F8F0
:105430003C4600E0E468002CF2D1BDE8F08110B5F4
:105440004020FFF73FF810BD30B5002300BF1648DD
:1054500004880088401C144D28804FF6FF70844259
:1054600003D14FF440402C462080002117E00F4824
:1054700050F8210002680EE0D08A0B4C2488A0422C
:1054800008D1581C80B20346B0F5804F01DB0020E4
:1054900030BDDCE7D268002AEED1481CC1B2042935
:1054A000E5DB01480088F3E768000020807A000807
:1054B000014605480068054A12681044024A106017
:1054C0001046006870470000840000206C00002037
:1054D0002DE9F84F044600BF00BF91480068A04284
:1054E00002D10020BDE8F88FB4F85C00B4F8481091
:1054F000884202DAB4F85C0001E0B4F84800804663
:10550000A56EA07E00F0020070B14DB1E968486858
:10551000FDF74CFE616C401A29890844404503D9C7
:10552000204601F0EDF9DDE7E66E26B100E03668D1
:1055300030680028FBD1201DFDF7ACFB074617B9EA
:105540006FF00300CEE70CB1206858B90FB1381DD9
:1055500000E00020014611B96FF00300C2E70868BF
:10556000206000BFE5B1E9684868FDF71FFE616C87
:10557000401A29890844404512D9B8F1000F0FD0CC
:10558000B4F85C0040450BD1E06E48B994F8910046
:1055900028B9002084F89000012084F89100B3E03D
:1055A000A4E000BFE9688889FDF70DFE00BFE06E4A
:1055B000A0B1A07E00F0440080B9A06E38B1A06E0A
:1055C000006858B9A06E0089618E884206DAB4F886
:1055D000600018B1B4F862000C2801DB012000E083
:1055E000002020B9A07E00F0A00000B98AE0207D54
:1055F000022807D01020FDF7E6FDE96889890843F5
:10560000E96888813A462146284600F0C9F80090AA
:10561000009828B1A07E40F08000A076009861E755
:105620002868A066207D022803D0A07E20F0030019
:10563000A076E9684868FDF7B9FD8146E968888980
:10564000FDF7C1FD00F0030008B1012000E00020DB
:105650002989084409EB000AE06CB0EB0A0001D587
:10566000C4F84CA0E9688889FDF7ADFD00F003009F
:1056700008B1012000E000202989084488B30020F7
:105680002860E06E10B9E5662E462EE0E9684868AD
:10569000FDF78CFD8146F1684868FDF787FDB9EBA1
:1056A00000001BD504F16C0901E0D9F80090D9F88D
:1056B000000068B1D9F80010C9684868FDF776FDA8
:1056C0008346E9684868FDF771FDBBEB0000ECD448
:1056D000D9F800002860C9F8005006E03560366847
:1056E00003E0FFE7284601F0F2F8A56E55B1E9683E
:1056F0004868FDF75BFD616C401A29890844404504
:105700007FF64FAF00BF00BFA06E10B90020A4F815
:105710006400A07E20F08000A0760020E2E6000079
:10572000AC0000202DE9F04705460E46904699460C
:1057300006F11400404481B200220120FEF76EF809
:10574000074657B300BF00BF7C68E88AFDF73BFD02
:105750002080288BFDF737FD6080C4F80490686ACC
:10576000FDF724FDA060B246F11706EB9171891098
:10577000491D4FF6FF7202EA013141F01000FDF7BA
:1057800022FDA081688DFDF71EFDE08100202082B2
:105790006082698D686A0844E8623846BDE8F0872F
:1057A0002DE9FE4F04460D4690466068C0890128E9
:1057B00002D00020BDE8FE8F686AFDF7F7FCE168C3
:1057C0008860688DFDF7FFFCE168C881698D686AB3
:1057D0000844E862E06800F11407A07A00F00100D4
:1057E00060B1291D40F2B450FFF77CF882464AF0C0
:1057F0000170FDF7DBFC38603F1D00BFB5F93000DC
:10580000002801DA00202886686B38B9144800683F
:105810006863E1684868FDF7C9FCA863A08961680E
:105820008988401A86B260684089801B6168488117
:1058300060680089801B616808816168E068486071
:105840000020E16808820621687A8DE80301AB7ABE
:105850002A1D29466068FDF7CDF881464846A9E72C
:105860006C0000202DE9F0410646244800880028FD
:1058700041D000202249088037E0FFF725F907468C
:1058800027B1012F04D0022F20D102E0BDE8F08122
:1058900029E0FFF719F9042806D119480088801C6F
:1058A00016490988884200DDF0E7FFF70DF9050287
:1058B000FFF70AF9054340F2B450854200DC15B900
:1058C00040F2B45000E0284670860CE0FFF7FCF888
:1058D0000446022C00DAD9E7A01E094909880844C9
:1058E0000749088000BF00BF00BF05480088034982
:1058F00009888842C1DB00BFC8E700008C00002097
:10590000940000202DE9FF5F0C4616469846DDE91D
:105910000FAB0E9FA146B4421BDA0AF0020050B949
:10592000B87E00F04000A0B9BBF1000F03D0B86E04
:1059300008B9F86E68B104F2B75020F00300B04225
:1059400001D9304603E004F2B75020F003001FFAFB
:1059500080F9002249460098FDF760FF05461DB911
:10596000002004B0BDE8F09F00BF00BF6889001BA5
:10597000A8F800002C816C812846F2E710B5044697
:10598000207DD0B1207D0A2817D0207D012814D099
:10599000206F20B1206FFEF724F9002020674FF020
:1059A000FF302086A06E00F09FFFE06E00F09CFFAD
:1059B0000020A066E066A4F8640010BD70B505463E
:1059C0000C4600BF2868A04203D12868C068286040
:1059D0000CE0286806E0C168A14202D1E168C1601C
:1059E00002E0C0680028F6D100BF00BF0020E060E0
:1059F00000BF2046FFF7C2FF207D0A280DD0207D82
:105A000001280AD0A07E00F0010030B1A07E40F055
:105A10000200A0762046FFF75BFD207D012803D021
:105A200000BF00BF00BF00BF00202075E08200BFA4
:105A300000BF70BD2DE9FC41044600270026FE484A
:105A4000007800F00400A0B3207D022806D1FB49B5
:105A5000E06C096888421BD1012719E0F849606AA7
:105A60000968884201D1012712E0F549606A096896
:105A7000081A0DD4218D606A0844F1490968081A92
:105A8000002805DC00BFA07E40F00200A07600BF29
:105A900087B100BF00BFEB48007840F00800E9493B
:105AA0000870A07E20F00100A0766FF00D00BDE828
:105AB000FC8101E00020FAE7DF48007800F00200F6
:105AC00068B1207D02280AD0207D032807D000BFBE
:105AD000A07E40F00200A07600BF0020E7E7A07E95
